{
  "address": "0xb2e0e3bF1a725cCD286b7CE360FE0d89FF60A45E",
  "abi": [
    {
      "inputs": [
        {
          "internalType": "string",
          "name": "_uri",
          "type": "string"
        },
        {
          "internalType": "uint96",
          "name": "_royaltyBasePoints",
          "type": "uint96"
        },
        {
          "internalType": "address",
          "name": "_lzEndpoint",
          "type": "address"
        }
      ],
      "stateMutability": "nonpayable",
      "type": "constructor"
    },
    {
      "anonymous": false,
      "inputs": [
        {
          "indexed": true,
          "internalType": "address",
          "name": "account",
          "type": "address"
        },
        {
          "indexed": true,
          "internalType": "address",
          "name": "operator",
          "type": "address"
        },
        {
          "indexed": false,
          "internalType": "bool",
          "name": "approved",
          "type": "bool"
        }
      ],
      "name": "ApprovalForAll",
      "type": "event"
    },
    {
      "anonymous": false,
      "inputs": [
        {
          "indexed": false,
          "internalType": "uint16",
          "name": "_srcChainId",
          "type": "uint16"
        },
        {
          "indexed": false,
          "internalType": "bytes",
          "name": "_srcAddress",
          "type": "bytes"
        },
        {
          "indexed": false,
          "internalType": "uint64",
          "name": "_nonce",
          "type": "uint64"
        },
        {
          "indexed": false,
          "internalType": "bytes",
          "name": "_payload",
          "type": "bytes"
        },
        {
          "indexed": false,
          "internalType": "bytes",
          "name": "_reason",
          "type": "bytes"
        }
      ],
      "name": "MessageFailed",
      "type": "event"
    },
    {
      "anonymous": false,
      "inputs": [
        {
          "indexed": true,
          "internalType": "address",
          "name": "previousOwner",
          "type": "address"
        },
        {
          "indexed": true,
          "internalType": "address",
          "name": "newOwner",
          "type": "address"
        }
      ],
      "name": "OwnershipTransferred",
      "type": "event"
    },
    {
      "anonymous": false,
      "inputs": [
        {
          "indexed": true,
          "internalType": "uint16",
          "name": "_srcChainId",
          "type": "uint16"
        },
        {
          "indexed": true,
          "internalType": "bytes",
          "name": "_srcAddress",
          "type": "bytes"
        },
        {
          "indexed": true,
          "internalType": "address",
          "name": "_toAddress",
          "type": "address"
        },
        {
          "indexed": false,
          "internalType": "uint256[]",
          "name": "_tokenIds",
          "type": "uint256[]"
        },
        {
          "indexed": false,
          "internalType": "uint256[]",
          "name": "_amounts",
          "type": "uint256[]"
        }
      ],
      "name": "ReceiveBatchFromChain",
      "type": "event"
    },
    {
      "anonymous": false,
      "inputs": [
        {
          "indexed": true,
          "internalType": "uint16",
          "name": "_srcChainId",
          "type": "uint16"
        },
        {
          "indexed": true,
          "internalType": "bytes",
          "name": "_srcAddress",
          "type": "bytes"
        },
        {
          "indexed": true,
          "internalType": "address",
          "name": "_toAddress",
          "type": "address"
        },
        {
          "indexed": false,
          "internalType": "uint256",
          "name": "_tokenId",
          "type": "uint256"
        },
        {
          "indexed": false,
          "internalType": "uint256",
          "name": "_amount",
          "type": "uint256"
        }
      ],
      "name": "ReceiveFromChain",
      "type": "event"
    },
    {
      "anonymous": false,
      "inputs": [
        {
          "indexed": false,
          "internalType": "uint16",
          "name": "_srcChainId",
          "type": "uint16"
        },
        {
          "indexed": false,
          "internalType": "bytes",
          "name": "_srcAddress",
          "type": "bytes"
        },
        {
          "indexed": false,
          "internalType": "uint64",
          "name": "_nonce",
          "type": "uint64"
        },
        {
          "indexed": false,
          "internalType": "bytes32",
          "name": "_payloadHash",
          "type": "bytes32"
        }
      ],
      "name": "RetryMessageSuccess",
      "type": "event"
    },
    {
      "anonymous": false,
      "inputs": [
        {
          "indexed": true,
          "internalType": "uint16",
          "name": "_dstChainId",
          "type": "uint16"
        },
        {
          "indexed": true,
          "internalType": "address",
          "name": "_from",
          "type": "address"
        },
        {
          "indexed": true,
          "internalType": "bytes",
          "name": "_toAddress",
          "type": "bytes"
        },
        {
          "indexed": false,
          "internalType": "uint256[]",
          "name": "_tokenIds",
          "type": "uint256[]"
        },
        {
          "indexed": false,
          "internalType": "uint256[]",
          "name": "_amounts",
          "type": "uint256[]"
        }
      ],
      "name": "SendBatchToChain",
      "type": "event"
    },
    {
      "anonymous": false,
      "inputs": [
        {
          "indexed": true,
          "internalType": "uint16",
          "name": "_dstChainId",
          "type": "uint16"
        },
        {
          "indexed": true,
          "internalType": "address",
          "name": "_from",
          "type": "address"
        },
        {
          "indexed": true,
          "internalType": "bytes",
          "name": "_toAddress",
          "type": "bytes"
        },
        {
          "indexed": false,
          "internalType": "uint256",
          "name": "_tokenId",
          "type": "uint256"
        },
        {
          "indexed": false,
          "internalType": "uint256",
          "name": "_amount",
          "type": "uint256"
        }
      ],
      "name": "SendToChain",
      "type": "event"
    },
    {
      "anonymous": false,
      "inputs": [
        {
          "indexed": false,
          "internalType": "uint16",
          "name": "_dstChainId",
          "type": "uint16"
        },
        {
          "indexed": false,
          "internalType": "uint16",
          "name": "_type",
          "type": "uint16"
        },
        {
          "indexed": false,
          "internalType": "uint256",
          "name": "_minDstGas",
          "type": "uint256"
        }
      ],
      "name": "SetMinDstGas",
      "type": "event"
    },
    {
      "anonymous": false,
      "inputs": [
        {
          "indexed": false,
          "internalType": "address",
          "name": "precrime",
          "type": "address"
        }
      ],
      "name": "SetPrecrime",
      "type": "event"
    },
    {
      "anonymous": false,
      "inputs": [
        {
          "indexed": false,
          "internalType": "uint16",
          "name": "_remoteChainId",
          "type": "uint16"
        },
        {
          "indexed": false,
          "internalType": "bytes",
          "name": "_path",
          "type": "bytes"
        }
      ],
      "name": "SetTrustedRemote",
      "type": "event"
    },
    {
      "anonymous": false,
      "inputs": [
        {
          "indexed": false,
          "internalType": "uint16",
          "name": "_remoteChainId",
          "type": "uint16"
        },
        {
          "indexed": false,
          "internalType": "bytes",
          "name": "_remoteAddress",
          "type": "bytes"
        }
      ],
      "name": "SetTrustedRemoteAddress",
      "type": "event"
    },
    {
      "anonymous": false,
      "inputs": [
        {
          "indexed": false,
          "internalType": "bool",
          "name": "_useCustomAdapterParams",
          "type": "bool"
        }
      ],
      "name": "SetUseCustomAdapterParams",
      "type": "event"
    },
    {
      "anonymous": false,
      "inputs": [
        {
          "indexed": true,
          "internalType": "address",
          "name": "operator",
          "type": "address"
        },
        {
          "indexed": true,
          "internalType": "address",
          "name": "from",
          "type": "address"
        },
        {
          "indexed": true,
          "internalType": "address",
          "name": "to",
          "type": "address"
        },
        {
          "indexed": false,
          "internalType": "uint256[]",
          "name": "ids",
          "type": "uint256[]"
        },
        {
          "indexed": false,
          "internalType": "uint256[]",
          "name": "values",
          "type": "uint256[]"
        }
      ],
      "name": "TransferBatch",
      "type": "event"
    },
    {
      "anonymous": false,
      "inputs": [
        {
          "indexed": true,
          "internalType": "address",
          "name": "operator",
          "type": "address"
        },
        {
          "indexed": true,
          "internalType": "address",
          "name": "from",
          "type": "address"
        },
        {
          "indexed": true,
          "internalType": "address",
          "name": "to",
          "type": "address"
        },
        {
          "indexed": false,
          "internalType": "uint256",
          "name": "id",
          "type": "uint256"
        },
        {
          "indexed": false,
          "internalType": "uint256",
          "name": "value",
          "type": "uint256"
        }
      ],
      "name": "TransferSingle",
      "type": "event"
    },
    {
      "anonymous": false,
      "inputs": [
        {
          "indexed": false,
          "internalType": "string",
          "name": "value",
          "type": "string"
        },
        {
          "indexed": true,
          "internalType": "uint256",
          "name": "id",
          "type": "uint256"
        }
      ],
      "name": "URI",
      "type": "event"
    },
    {
      "inputs": [],
      "name": "DEFAULT_PAYLOAD_SIZE_LIMIT",
      "outputs": [
        {
          "internalType": "uint256",
          "name": "",
          "type": "uint256"
        }
      ],
      "stateMutability": "view",
      "type": "function"
    },
    {
      "inputs": [],
      "name": "FUNCTION_TYPE_SEND",
      "outputs": [
        {
          "internalType": "uint16",
          "name": "",
          "type": "uint16"
        }
      ],
      "stateMutability": "view",
      "type": "function"
    },
    {
      "inputs": [],
      "name": "FUNCTION_TYPE_SEND_BATCH",
      "outputs": [
        {
          "internalType": "uint16",
          "name": "",
          "type": "uint16"
        }
      ],
      "stateMutability": "view",
      "type": "function"
    },
    {
      "inputs": [],
      "name": "MAX_SUPPLY",
      "outputs": [
        {
          "internalType": "uint256",
          "name": "",
          "type": "uint256"
        }
      ],
      "stateMutability": "view",
      "type": "function"
    },
    {
      "inputs": [],
      "name": "NO_EXTRA_GAS",
      "outputs": [
        {
          "internalType": "uint256",
          "name": "",
          "type": "uint256"
        }
      ],
      "stateMutability": "view",
      "type": "function"
    },
    {
      "inputs": [
        {
          "internalType": "address",
          "name": "account",
          "type": "address"
        },
        {
          "internalType": "uint256",
          "name": "id",
          "type": "uint256"
        }
      ],
      "name": "balanceOf",
      "outputs": [
        {
          "internalType": "uint256",
          "name": "",
          "type": "uint256"
        }
      ],
      "stateMutability": "view",
      "type": "function"
    },
    {
      "inputs": [
        {
          "internalType": "address[]",
          "name": "accounts",
          "type": "address[]"
        },
        {
          "internalType": "uint256[]",
          "name": "ids",
          "type": "uint256[]"
        }
      ],
      "name": "balanceOfBatch",
      "outputs": [
        {
          "internalType": "uint256[]",
          "name": "",
          "type": "uint256[]"
        }
      ],
      "stateMutability": "view",
      "type": "function"
    },
    {
      "inputs": [
        {
          "internalType": "address",
          "name": "_to",
          "type": "address"
        },
        {
          "internalType": "uint256",
          "name": "amount",
          "type": "uint256"
        }
      ],
      "name": "batchMint",
      "outputs": [],
      "stateMutability": "nonpayable",
      "type": "function"
    },
    {
      "inputs": [
        {
          "internalType": "address",
          "name": "account",
          "type": "address"
        },
        {
          "internalType": "uint256",
          "name": "id",
          "type": "uint256"
        },
        {
          "internalType": "uint256",
          "name": "value",
          "type": "uint256"
        }
      ],
      "name": "burn",
      "outputs": [],
      "stateMutability": "nonpayable",
      "type": "function"
    },
    {
      "inputs": [
        {
          "internalType": "address",
          "name": "account",
          "type": "address"
        },
        {
          "internalType": "uint256[]",
          "name": "ids",
          "type": "uint256[]"
        },
        {
          "internalType": "uint256[]",
          "name": "values",
          "type": "uint256[]"
        }
      ],
      "name": "burnBatch",
      "outputs": [],
      "stateMutability": "nonpayable",
      "type": "function"
    },
    {
      "inputs": [
        {
          "internalType": "uint16",
          "name": "_dstChainId",
          "type": "uint16"
        },
        {
          "internalType": "bytes",
          "name": "_toAddress",
          "type": "bytes"
        },
        {
          "internalType": "uint256[]",
          "name": "_tokenIds",
          "type": "uint256[]"
        },
        {
          "internalType": "uint256[]",
          "name": "_amounts",
          "type": "uint256[]"
        },
        {
          "internalType": "bool",
          "name": "_useZro",
          "type": "bool"
        },
        {
          "internalType": "bytes",
          "name": "_adapterParams",
          "type": "bytes"
        }
      ],
      "name": "estimateSendBatchFee",
      "outputs": [
        {
          "internalType": "uint256",
          "name": "nativeFee",
          "type": "uint256"
        },
        {
          "internalType": "uint256",
          "name": "zroFee",
          "type": "uint256"
        }
      ],
      "stateMutability": "view",
      "type": "function"
    },
    {
      "inputs": [
        {
          "internalType": "uint16",
          "name": "_dstChainId",
          "type": "uint16"
        },
        {
          "internalType": "bytes",
          "name": "_toAddress",
          "type": "bytes"
        },
        {
          "internalType": "uint256",
          "name": "_tokenId",
          "type": "uint256"
        },
        {
          "internalType": "uint256",
          "name": "_amount",
          "type": "uint256"
        },
        {
          "internalType": "bool",
          "name": "_useZro",
          "type": "bool"
        },
        {
          "internalType": "bytes",
          "name": "_adapterParams",
          "type": "bytes"
        }
      ],
      "name": "estimateSendFee",
      "outputs": [
        {
          "internalType": "uint256",
          "name": "nativeFee",
          "type": "uint256"
        },
        {
          "internalType": "uint256",
          "name": "zroFee",
          "type": "uint256"
        }
      ],
      "stateMutability": "view",
      "type": "function"
    },
    {
      "inputs": [
        {
          "internalType": "uint16",
          "name": "",
          "type": "uint16"
        },
        {
          "internalType": "bytes",
          "name": "",
          "type": "bytes"
        },
        {
          "internalType": "uint64",
          "name": "",
          "type": "uint64"
        }
      ],
      "name": "failedMessages",
      "outputs": [
        {
          "internalType": "bytes32",
          "name": "",
          "type": "bytes32"
        }
      ],
      "stateMutability": "view",
      "type": "function"
    },
    {
      "inputs": [
        {
          "internalType": "uint16",
          "name": "_srcChainId",
          "type": "uint16"
        },
        {
          "internalType": "bytes",
          "name": "_srcAddress",
          "type": "bytes"
        }
      ],
      "name": "forceResumeReceive",
      "outputs": [],
      "stateMutability": "nonpayable",
      "type": "function"
    },
    {
      "inputs": [
        {
          "internalType": "uint16",
          "name": "_version",
          "type": "uint16"
        },
        {
          "internalType": "uint16",
          "name": "_chainId",
          "type": "uint16"
        },
        {
          "internalType": "address",
          "name": "",
          "type": "address"
        },
        {
          "internalType": "uint256",
          "name": "_configType",
          "type": "uint256"
        }
      ],
      "name": "getConfig",
      "outputs": [
        {
          "internalType": "bytes",
          "name": "",
          "type": "bytes"
        }
      ],
      "stateMutability": "view",
      "type": "function"
    },
    {
      "inputs": [
        {
          "internalType": "uint16",
          "name": "_remoteChainId",
          "type": "uint16"
        }
      ],
      "name": "getTrustedRemoteAddress",
      "outputs": [
        {
          "internalType": "bytes",
          "name": "",
          "type": "bytes"
        }
      ],
      "stateMutability": "view",
      "type": "function"
    },
    {
      "inputs": [
        {
          "internalType": "address",
          "name": "account",
          "type": "address"
        },
        {
          "internalType": "address",
          "name": "operator",
          "type": "address"
        }
      ],
      "name": "isApprovedForAll",
      "outputs": [
        {
          "internalType": "bool",
          "name": "",
          "type": "bool"
        }
      ],
      "stateMutability": "view",
      "type": "function"
    },
    {
      "inputs": [
        {
          "internalType": "uint16",
          "name": "_srcChainId",
          "type": "uint16"
        },
        {
          "internalType": "bytes",
          "name": "_srcAddress",
          "type": "bytes"
        }
      ],
      "name": "isTrustedRemote",
      "outputs": [
        {
          "internalType": "bool",
          "name": "",
          "type": "bool"
        }
      ],
      "stateMutability": "view",
      "type": "function"
    },
    {
      "inputs": [],
      "name": "lzEndpoint",
      "outputs": [
        {
          "internalType": "contract ILayerZeroEndpoint",
          "name": "",
          "type": "address"
        }
      ],
      "stateMutability": "view",
      "type": "function"
    },
    {
      "inputs": [
        {
          "internalType": "uint16",
          "name": "_srcChainId",
          "type": "uint16"
        },
        {
          "internalType": "bytes",
          "name": "_srcAddress",
          "type": "bytes"
        },
        {
          "internalType": "uint64",
          "name": "_nonce",
          "type": "uint64"
        },
        {
          "internalType": "bytes",
          "name": "_payload",
          "type": "bytes"
        }
      ],
      "name": "lzReceive",
      "outputs": [],
      "stateMutability": "nonpayable",
      "type": "function"
    },
    {
      "inputs": [
        {
          "internalType": "uint16",
          "name": "",
          "type": "uint16"
        },
        {
          "internalType": "uint16",
          "name": "",
          "type": "uint16"
        }
      ],
      "name": "minDstGasLookup",
      "outputs": [
        {
          "internalType": "uint256",
          "name": "",
          "type": "uint256"
        }
      ],
      "stateMutability": "view",
      "type": "function"
    },
    {
      "inputs": [
        {
          "internalType": "address",
          "name": "_to",
          "type": "address"
        },
        {
          "internalType": "uint256",
          "name": "tokenId",
          "type": "uint256"
        }
      ],
      "name": "mint",
      "outputs": [],
      "stateMutability": "nonpayable",
      "type": "function"
    },
    {
      "inputs": [
        {
          "internalType": "address",
          "name": "from",
          "type": "address"
        },
        {
          "internalType": "address[]",
          "name": "tos",
          "type": "address[]"
        },
        {
          "internalType": "uint256[]",
          "name": "ids",
          "type": "uint256[]"
        },
        {
          "internalType": "uint256[]",
          "name": "amounts",
          "type": "uint256[]"
        },
        {
          "internalType": "bytes",
          "name": "data",
          "type": "bytes"
        }
      ],
      "name": "multiBatchTransferFrom",
      "outputs": [],
      "stateMutability": "nonpayable",
      "type": "function"
    },
    {
      "inputs": [
        {
          "internalType": "address",
          "name": "from",
          "type": "address"
        },
        {
          "internalType": "address[]",
          "name": "tos",
          "type": "address[]"
        },
        {
          "internalType": "uint256",
          "name": "id",
          "type": "uint256"
        },
        {
          "internalType": "uint256",
          "name": "amount",
          "type": "uint256"
        },
        {
          "internalType": "bytes",
          "name": "data",
          "type": "bytes"
        }
      ],
      "name": "multiTransferFrom",
      "outputs": [],
      "stateMutability": "nonpayable",
      "type": "function"
    },
    {
      "inputs": [],
      "name": "name",
      "outputs": [
        {
          "internalType": "string",
          "name": "",
          "type": "string"
        }
      ],
      "stateMutability": "view",
      "type": "function"
    },
    {
      "inputs": [
        {
          "internalType": "uint16",
          "name": "_srcChainId",
          "type": "uint16"
        },
        {
          "internalType": "bytes",
          "name": "_srcAddress",
          "type": "bytes"
        },
        {
          "internalType": "uint64",
          "name": "_nonce",
          "type": "uint64"
        },
        {
          "internalType": "bytes",
          "name": "_payload",
          "type": "bytes"
        }
      ],
      "name": "nonblockingLzReceive",
      "outputs": [],
      "stateMutability": "nonpayable",
      "type": "function"
    },
    {
      "inputs": [],
      "name": "owner",
      "outputs": [
        {
          "internalType": "address",
          "name": "",
          "type": "address"
        }
      ],
      "stateMutability": "view",
      "type": "function"
    },
    {
      "inputs": [
        {
          "internalType": "uint16",
          "name": "",
          "type": "uint16"
        }
      ],
      "name": "payloadSizeLimitLookup",
      "outputs": [
        {
          "internalType": "uint256",
          "name": "",
          "type": "uint256"
        }
      ],
      "stateMutability": "view",
      "type": "function"
    },
    {
      "inputs": [],
      "name": "precrime",
      "outputs": [
        {
          "internalType": "address",
          "name": "",
          "type": "address"
        }
      ],
      "stateMutability": "view",
      "type": "function"
    },
    {
      "inputs": [],
      "name": "renounceOwnership",
      "outputs": [],
      "stateMutability": "nonpayable",
      "type": "function"
    },
    {
      "inputs": [
        {
          "internalType": "uint16",
          "name": "_srcChainId",
          "type": "uint16"
        },
        {
          "internalType": "bytes",
          "name": "_srcAddress",
          "type": "bytes"
        },
        {
          "internalType": "uint64",
          "name": "_nonce",
          "type": "uint64"
        },
        {
          "internalType": "bytes",
          "name": "_payload",
          "type": "bytes"
        }
      ],
      "name": "retryMessage",
      "outputs": [],
      "stateMutability": "payable",
      "type": "function"
    },
    {
      "inputs": [
        {
          "internalType": "uint256",
          "name": "tokenId",
          "type": "uint256"
        },
        {
          "internalType": "uint256",
          "name": "salePrice",
          "type": "uint256"
        }
      ],
      "name": "royaltyInfo",
      "outputs": [
        {
          "internalType": "address",
          "name": "",
          "type": "address"
        },
        {
          "internalType": "uint256",
          "name": "",
          "type": "uint256"
        }
      ],
      "stateMutability": "view",
      "type": "function"
    },
    {
      "inputs": [
        {
          "internalType": "address",
          "name": "from",
          "type": "address"
        },
        {
          "internalType": "address",
          "name": "to",
          "type": "address"
        },
        {
          "internalType": "uint256[]",
          "name": "ids",
          "type": "uint256[]"
        },
        {
          "internalType": "uint256[]",
          "name": "amounts",
          "type": "uint256[]"
        },
        {
          "internalType": "bytes",
          "name": "data",
          "type": "bytes"
        }
      ],
      "name": "safeBatchTransferFrom",
      "outputs": [],
      "stateMutability": "nonpayable",
      "type": "function"
    },
    {
      "inputs": [
        {
          "internalType": "address",
          "name": "from",
          "type": "address"
        },
        {
          "internalType": "address",
          "name": "to",
          "type": "address"
        },
        {
          "internalType": "uint256",
          "name": "id",
          "type": "uint256"
        },
        {
          "internalType": "uint256",
          "name": "amount",
          "type": "uint256"
        },
        {
          "internalType": "bytes",
          "name": "data",
          "type": "bytes"
        }
      ],
      "name": "safeTransferFrom",
      "outputs": [],
      "stateMutability": "nonpayable",
      "type": "function"
    },
    {
      "inputs": [
        {
          "internalType": "address",
          "name": "_from",
          "type": "address"
        },
        {
          "internalType": "uint16",
          "name": "_dstChainId",
          "type": "uint16"
        },
        {
          "internalType": "bytes",
          "name": "_toAddress",
          "type": "bytes"
        },
        {
          "internalType": "uint256[]",
          "name": "_tokenIds",
          "type": "uint256[]"
        },
        {
          "internalType": "uint256[]",
          "name": "_amounts",
          "type": "uint256[]"
        },
        {
          "internalType": "address payable",
          "name": "_refundAddress",
          "type": "address"
        },
        {
          "internalType": "address",
          "name": "_zroPaymentAddress",
          "type": "address"
        },
        {
          "internalType": "bytes",
          "name": "_adapterParams",
          "type": "bytes"
        }
      ],
      "name": "sendBatchFrom",
      "outputs": [],
      "stateMutability": "payable",
      "type": "function"
    },
    {
      "inputs": [
        {
          "internalType": "address",
          "name": "_from",
          "type": "address"
        },
        {
          "internalType": "uint16",
          "name": "_dstChainId",
          "type": "uint16"
        },
        {
          "internalType": "bytes",
          "name": "_toAddress",
          "type": "bytes"
        },
        {
          "internalType": "uint256",
          "name": "_tokenId",
          "type": "uint256"
        },
        {
          "internalType": "uint256",
          "name": "_amount",
          "type": "uint256"
        },
        {
          "internalType": "address payable",
          "name": "_refundAddress",
          "type": "address"
        },
        {
          "internalType": "address",
          "name": "_zroPaymentAddress",
          "type": "address"
        },
        {
          "internalType": "bytes",
          "name": "_adapterParams",
          "type": "bytes"
        }
      ],
      "name": "sendFrom",
      "outputs": [],
      "stateMutability": "payable",
      "type": "function"
    },
    {
      "inputs": [
        {
          "internalType": "address",
          "name": "operator",
          "type": "address"
        },
        {
          "internalType": "bool",
          "name": "approved",
          "type": "bool"
        }
      ],
      "name": "setApprovalForAll",
      "outputs": [],
      "stateMutability": "nonpayable",
      "type": "function"
    },
    {
      "inputs": [
        {
          "internalType": "uint16",
          "name": "_version",
          "type": "uint16"
        },
        {
          "internalType": "uint16",
          "name": "_chainId",
          "type": "uint16"
        },
        {
          "internalType": "uint256",
          "name": "_configType",
          "type": "uint256"
        },
        {
          "internalType": "bytes",
          "name": "_config",
          "type": "bytes"
        }
      ],
      "name": "setConfig",
      "outputs": [],
      "stateMutability": "nonpayable",
      "type": "function"
    },
    {
      "inputs": [
        {
          "internalType": "address",
          "name": "receiver",
          "type": "address"
        },
        {
          "internalType": "uint96",
          "name": "feeNumerator",
          "type": "uint96"
        }
      ],
      "name": "setDefaultRoyalty",
      "outputs": [],
      "stateMutability": "nonpayable",
      "type": "function"
    },
    {
      "inputs": [
        {
          "internalType": "uint16",
          "name": "_dstChainId",
          "type": "uint16"
        },
        {
          "internalType": "uint16",
          "name": "_packetType",
          "type": "uint16"
        },
        {
          "internalType": "uint256",
          "name": "_minGas",
          "type": "uint256"
        }
      ],
      "name": "setMinDstGas",
      "outputs": [],
      "stateMutability": "nonpayable",
      "type": "function"
    },
    {
      "inputs": [
        {
          "internalType": "uint16",
          "name": "_dstChainId",
          "type": "uint16"
        },
        {
          "internalType": "uint256",
          "name": "_size",
          "type": "uint256"
        }
      ],
      "name": "setPayloadSizeLimit",
      "outputs": [],
      "stateMutability": "nonpayable",
      "type": "function"
    },
    {
      "inputs": [
        {
          "internalType": "address",
          "name": "_precrime",
          "type": "address"
        }
      ],
      "name": "setPrecrime",
      "outputs": [],
      "stateMutability": "nonpayable",
      "type": "function"
    },
    {
      "inputs": [
        {
          "internalType": "uint16",
          "name": "_version",
          "type": "uint16"
        }
      ],
      "name": "setReceiveVersion",
      "outputs": [],
      "stateMutability": "nonpayable",
      "type": "function"
    },
    {
      "inputs": [
        {
          "internalType": "uint16",
          "name": "_version",
          "type": "uint16"
        }
      ],
      "name": "setSendVersion",
      "outputs": [],
      "stateMutability": "nonpayable",
      "type": "function"
    },
    {
      "inputs": [
        {
          "internalType": "uint256",
          "name": "tokenId",
          "type": "uint256"
        },
        {
          "internalType": "address",
          "name": "receiver",
          "type": "address"
        },
        {
          "internalType": "uint96",
          "name": "feeNumerator",
          "type": "uint96"
        }
      ],
      "name": "setTokenRoyalty",
      "outputs": [],
      "stateMutability": "nonpayable",
      "type": "function"
    },
    {
      "inputs": [
        {
          "internalType": "uint16",
          "name": "_remoteChainId",
          "type": "uint16"
        },
        {
          "internalType": "bytes",
          "name": "_path",
          "type": "bytes"
        }
      ],
      "name": "setTrustedRemote",
      "outputs": [],
      "stateMutability": "nonpayable",
      "type": "function"
    },
    {
      "inputs": [
        {
          "internalType": "uint16",
          "name": "_remoteChainId",
          "type": "uint16"
        },
        {
          "internalType": "bytes",
          "name": "_remoteAddress",
          "type": "bytes"
        }
      ],
      "name": "setTrustedRemoteAddress",
      "outputs": [],
      "stateMutability": "nonpayable",
      "type": "function"
    },
    {
      "inputs": [
        {
          "internalType": "string",
          "name": "_uri",
          "type": "string"
        }
      ],
      "name": "setURI",
      "outputs": [],
      "stateMutability": "nonpayable",
      "type": "function"
    },
    {
      "inputs": [
        {
          "internalType": "bool",
          "name": "_useCustomAdapterParams",
          "type": "bool"
        }
      ],
      "name": "setUseCustomAdapterParams",
      "outputs": [],
      "stateMutability": "nonpayable",
      "type": "function"
    },
    {
      "inputs": [
        {
          "internalType": "bytes4",
          "name": "interfaceId",
          "type": "bytes4"
        }
      ],
      "name": "supportsInterface",
      "outputs": [
        {
          "internalType": "bool",
          "name": "",
          "type": "bool"
        }
      ],
      "stateMutability": "view",
      "type": "function"
    },
    {
      "inputs": [],
      "name": "symbol",
      "outputs": [
        {
          "internalType": "string",
          "name": "",
          "type": "string"
        }
      ],
      "stateMutability": "view",
      "type": "function"
    },
    {
      "inputs": [
        {
          "internalType": "address",
          "name": "newOwner",
          "type": "address"
        }
      ],
      "name": "transferOwnership",
      "outputs": [],
      "stateMutability": "nonpayable",
      "type": "function"
    },
    {
      "inputs": [
        {
          "internalType": "uint16",
          "name": "",
          "type": "uint16"
        }
      ],
      "name": "trustedRemoteLookup",
      "outputs": [
        {
          "internalType": "bytes",
          "name": "",
          "type": "bytes"
        }
      ],
      "stateMutability": "view",
      "type": "function"
    },
    {
      "inputs": [
        {
          "internalType": "uint256",
          "name": "id",
          "type": "uint256"
        }
      ],
      "name": "uri",
      "outputs": [
        {
          "internalType": "string",
          "name": "",
          "type": "string"
        }
      ],
      "stateMutability": "view",
      "type": "function"
    },
    {
      "inputs": [],
      "name": "useCustomAdapterParams",
      "outputs": [
        {
          "internalType": "bool",
          "name": "",
          "type": "bool"
        }
      ],
      "stateMutability": "view",
      "type": "function"
    },
    {
      "inputs": [],
      "name": "withdraw",
      "outputs": [],
      "stateMutability": "nonpayable",
      "type": "function"
    },
    {
      "inputs": [
        {
          "internalType": "contract IERC20",
          "name": "token",
          "type": "address"
        }
      ],
      "name": "withdrawTokens",
      "outputs": [],
      "stateMutability": "nonpayable",
      "type": "function"
    }
  ],
  "transactionHash": "0x0ea346c4bb5b2370aa84c51fdd4180c8442ef879923b46d4cd218cf7c8da38e3",
  "args": [
    "ipfs://bafybeifqaqm6iy6o6lhjql2wks24p4i3ad2ejo4esh7zug3akqvxkno7hm/",
    700,
    "0xb6319cC6c8c27A8F5dAF0dD3DF91EA35C4720dd7"
  ],
  "numDeployments": 1,
  "solcInputHash": "bd0b214594fe3375f93da792284aedaa",
  "bytecode": "0x6000600c5560e0604052601260a09081527141726d6f7572583a205375727669766f727360701b60c052600d90620000389082620002f5565b5060408051808201909152600381526241585360e81b6020820152600e90620000629082620002f5565b503480156200007057600080fd5b50604051620058f3380380620058f38339810160408190526200009391620003f6565b828181818080620000a433620000e9565b6001600160a01b031660805250620000be90508162000139565b505050620000dc620000d5620000e560201b60201c565b836200014b565b505050620004f0565b3390565b600080546001600160a01b038381166001600160a01b0319831681178455604051919092169283917f8be0079c531659141344cd1fd0a4f28419497f9722a3daafe3b4186f6b6457e09190a35050565b6009620001478282620002f5565b5050565b6127106001600160601b0382161115620001bf5760405162461bcd60e51b815260206004820152602a60248201527f455243323938313a20726f79616c7479206665652077696c6c206578636565646044820152692073616c65507269636560b01b60648201526084015b60405180910390fd5b6001600160a01b038216620002175760405162461bcd60e51b815260206004820152601960248201527f455243323938313a20696e76616c6964207265636569766572000000000000006044820152606401620001b6565b604080518082019091526001600160a01b039092168083526001600160601b039091166020909201829052600160a01b90910217600a55565b634e487b7160e01b600052604160045260246000fd5b600181811c908216806200027b57607f821691505b6020821081036200029c57634e487b7160e01b600052602260045260246000fd5b50919050565b601f821115620002f057600081815260208120601f850160051c81016020861015620002cb5750805b601f850160051c820191505b81811015620002ec57828155600101620002d7565b5050505b505050565b81516001600160401b0381111562000311576200031162000250565b620003298162000322845462000266565b84620002a2565b602080601f831160018114620003615760008415620003485750858301515b600019600386901b1c1916600185901b178555620002ec565b600085815260208120601f198616915b82811015620003925788860151825594840194600190910190840162000371565b5085821015620003b15787850151600019600388901b60f8161c191681555b5050505050600190811b01905550565b80516001600160601b0381168114620003d957600080fd5b919050565b80516001600160a01b0381168114620003d957600080fd5b6000806000606084860312156200040c57600080fd5b83516001600160401b03808211156200042457600080fd5b818601915086601f8301126200043957600080fd5b8151818111156200044e576200044e62000250565b604051601f8201601f19908116603f0116810190838211818310171562000479576200047962000250565b816040528281526020935089848487010111156200049657600080fd5b600091505b82821015620004ba57848201840151818301850152908301906200049b565b6000848483010152809750505050620004d5818701620003c1565b93505050620004e760408501620003de565b90509250925092565b6080516153af620005446000396000818161096601528181610b3701528181610edf015281816110240152818161129401528181611a6a01528181611b730152818161203b015261370501526153af6000f3fe6080604052600436106103745760003560e01c80635e70be34116101d1578063b253566311610102578063e985e9c5116100a0578063f242432a1161006f578063f242432a14610ab4578063f2fde38b14610ad4578063f5298aca14610af4578063f5ecbdbc14610b1457600080fd5b8063e985e9c514610a11578063eab45d9c14610a5a578063eb8d72b714610a7a578063ed629c5c14610a9a57600080fd5b8063c4461834116100dc578063c4461834146109a8578063cbed8b9c146109be578063d1deba1f146109de578063df2a5b3b146109f157600080fd5b8063b253566314610934578063b353aaa714610954578063baf3292d1461098857600080fd5b80638da5cb5b1161016f5780639f38369a116101495780639f38369a146108bf578063a22cb465146108df578063a6c3d165146108ff578063af3fb21c1461091f57600080fd5b80638da5cb5b14610858578063950c8a741461088a57806395d89b41146108aa57600080fd5b8063715018a6116101ab578063715018a6146107b65780637533d788146107cb5780638608e5f8146107eb5780638cfd8f5c1461082057600080fd5b80635e70be341461075657806366ad5c8a146107765780636b20c4541461079657600080fd5b80633ccfd60b116102ab57806349df728c116102495780634e1273f4116102235780634e1273f41461069a57806357884c24146106c75780635944c753146106e75780635b8c41e61461070757600080fd5b806349df728c146106545780634ab4e687146106745780634db8226a1461068757600080fd5b806340c10f191161028557806340c10f19146105df57806342d65a8d146105ff57806343508b051461061f578063447705151461063f57600080fd5b80633ccfd60b1461057d5780633d8b38f6146105925780633f1f4fa4146105b257600080fd5b80630df3748311610318578063149e3e1f116102f2578063149e3e1f146104e05780632a55205a146105085780632eb2c2d61461054757806332cb6b0c1461056757600080fd5b80630df37483146104805780630e89341c146104a057806310ddb137146104c057600080fd5b806302fe53051161035457806302fe5305146103fe57806304634d8d1461041e57806306fdde031461043e57806307e0db171461046057600080fd5b80621d356714610379578062fdd58e1461039b57806301ffc9a7146103ce575b600080fd5b34801561038557600080fd5b50610399610394366004613a99565b610b34565b005b3480156103a757600080fd5b506103bb6103b6366004613b4c565b610d65565b6040519081526020015b60405180910390f35b3480156103da57600080fd5b506103ee6103e9366004613b8e565b610dfb565b60405190151581526020016103c5565b34801561040a57600080fd5b50610399610419366004613c5a565b610e06565b34801561042a57600080fd5b50610399610439366004613cc1565b610e1a565b34801561044a57600080fd5b50610453610e30565b6040516103c59190613d46565b34801561046c57600080fd5b5061039961047b366004613d59565b610ebe565b34801561048c57600080fd5b5061039961049b366004613d74565b610f47565b3480156104ac57600080fd5b506104536104bb366004613d90565b610f66565b3480156104cc57600080fd5b506103996104db366004613d59565b611003565b3480156104ec57600080fd5b506104f5600281565b60405161ffff90911681526020016103c5565b34801561051457600080fd5b50610528610523366004613da9565b61105b565b604080516001600160a01b0390931683526020830191909152016103c5565b34801561055357600080fd5b50610399610562366004613e7f565b611109565b34801561057357600080fd5b506103bb610bb881565b34801561058957600080fd5b5061039961114e565b34801561059e57600080fd5b506103ee6105ad366004613f2c565b611185565b3480156105be57600080fd5b506103bb6105cd366004613d59565b60036020526000908152604090205481565b3480156105eb57600080fd5b506103996105fa366004613b4c565b611251565b34801561060b57600080fd5b5061039961061a366004613f2c565b611275565b34801561062b57600080fd5b5061039961063a366004613b4c565b6112fb565b34801561064b57600080fd5b506103bb600081565b34801561066057600080fd5b5061039961066f366004613f7e565b6113a5565b610399610682366004613f9b565b61148c565b61039961069536600461408a565b6114a6565b3480156106a657600080fd5b506106ba6106b536600461419f565b6114c6565b6040516103c5919061423d565b3480156106d357600080fd5b506103996106e2366004614250565b6115ef565b3480156106f357600080fd5b506103996107023660046142b1565b611671565b34801561071357600080fd5b506103bb6107223660046142ef565b6005602090815260009384526040808520845180860184018051928152908401958401959095209452929052825290205481565b34801561076257600080fd5b50610399610771366004614343565b611684565b34801561078257600080fd5b50610399610791366004613a99565b6116fe565b3480156107a257600080fd5b506103996107b13660046143b2565b6117d2565b3480156107c257600080fd5b50610399611815565b3480156107d757600080fd5b506104536107e6366004613d59565b611829565b3480156107f757600080fd5b5061080b610806366004614440565b611842565b604080519283526020830191909152016103c5565b34801561082c57600080fd5b506103bb61083b3660046144da565b600260209081526000928352604080842090915290825290205481565b34801561086457600080fd5b506000546001600160a01b03165b6040516001600160a01b0390911681526020016103c5565b34801561089657600080fd5b50600454610872906001600160a01b031681565b3480156108b657600080fd5b50610453611872565b3480156108cb57600080fd5b506104536108da366004613d59565b61187f565b3480156108eb57600080fd5b506103996108fa366004614504565b611995565b34801561090b57600080fd5b5061039961091a366004613f2c565b6119a0565b34801561092b57600080fd5b506104f5600181565b34801561094057600080fd5b5061080b61094f36600461453d565b611a29565b34801561096057600080fd5b506108727f000000000000000000000000000000000000000000000000000000000000000081565b34801561099457600080fd5b506103996109a3366004613f7e565b611af7565b3480156109b457600080fd5b506103bb61271081565b3480156109ca57600080fd5b506103996109d93660046145ef565b611b54565b6103996109ec366004613a99565b611be9565b3480156109fd57600080fd5b50610399610a0c36600461465d565b611dff565b348015610a1d57600080fd5b506103ee610a2c366004614699565b6001600160a01b03918216600090815260086020908152604080832093909416825291909152205460ff1690565b348015610a6657600080fd5b50610399610a753660046146c7565b611e69565b348015610a8657600080fd5b50610399610a95366004613f2c565b611eb2565b348015610aa657600080fd5b506006546103ee9060ff1681565b348015610ac057600080fd5b50610399610acf3660046146e4565b611f0c565b348015610ae057600080fd5b50610399610aef366004613f7e565b611f51565b348015610b0057600080fd5b50610399610b0f36600461474c565b611fc7565b348015610b2057600080fd5b50610453610b2f366004614781565b61200a565b337f00000000000000000000000000000000000000000000000000000000000000006001600160a01b031614610bb15760405162461bcd60e51b815260206004820152601e60248201527f4c7a4170703a20696e76616c696420656e64706f696e742063616c6c6572000060448201526064015b60405180910390fd5b61ffff861660009081526001602052604081208054610bcf906147ce565b80601f0160208091040260200160405190810160405280929190818152602001828054610bfb906147ce565b8015610c485780601f10610c1d57610100808354040283529160200191610c48565b820191906000526020600020905b815481529060010190602001808311610c2b57829003601f168201915b50505050509050805186869050148015610c63575060008151115b8015610c8b575080516020820120604051610c819088908890614808565b6040518091039020145b610ce65760405162461bcd60e51b815260206004820152602660248201527f4c7a4170703a20696e76616c696420736f757263652073656e64696e6720636f6044820152651b9d1c9858dd60d21b6064820152608401610ba8565b610d5c8787878080601f01602080910402602001604051908101604052809392919081815260200183838082843760009201919091525050604080516020601f8a018190048102820181019092528881528a9350915088908890819084018382808284376000920191909152506120bb92505050565b50505050505050565b60006001600160a01b038316610dd05760405162461bcd60e51b815260206004820152602a60248201527f455243313135353a2061646472657373207a65726f206973206e6f742061207660448201526930b634b21037bbb732b960b11b6064820152608401610ba8565b5060008181526007602090815260408083206001600160a01b03861684529091529020545b92915050565b6000610df582612134565b610e0e612151565b610e17816121ab565b50565b610e22612151565b610e2c82826121b7565b5050565b600d8054610e3d906147ce565b80601f0160208091040260200160405190810160405280929190818152602001828054610e69906147ce565b8015610eb65780601f10610e8b57610100808354040283529160200191610eb6565b820191906000526020600020905b815481529060010190602001808311610e9957829003601f168201915b505050505081565b610ec6612151565b6040516307e0db1760e01b815261ffff821660048201527f00000000000000000000000000000000000000000000000000000000000000006001600160a01b0316906307e0db17906024015b600060405180830381600087803b158015610f2c57600080fd5b505af1158015610f40573d6000803e3d6000fd5b5050505050565b610f4f612151565b61ffff909116600090815260036020526040902055565b6060610bb88210610fca5760405162461bcd60e51b815260206004820152602860248201527f457874656e6465644f4e4654313135353a20546f6b656e20494420646f65736e60448201526709dd08195e1a5cdd60c21b6064820152608401610ba8565b610fd382612271565b610fdc83612305565b604051602001610fed929190614818565b6040516020818303038152906040529050919050565b61100b612151565b6040516310ddb13760e01b815261ffff821660048201527f00000000000000000000000000000000000000000000000000000000000000006001600160a01b0316906310ddb13790602401610f12565b6000828152600b602090815260408083208151808301909252546001600160a01b038116808352600160a01b9091046001600160601b03169282019290925282916110d0575060408051808201909152600a546001600160a01b0381168252600160a01b90046001600160601b031660208201525b6020810151600090612710906110ef906001600160601b03168761485d565b6110f99190614874565b91519350909150505b9250929050565b6001600160a01b03851633148061112557506111258533610a2c565b6111415760405162461bcd60e51b8152600401610ba890614896565b610f408585858585612397565b611156612151565b6040514790339082156108fc029083906000818181858888f19350505050158015610e2c573d6000803e3d6000fd5b61ffff8316600090815260016020526040812080548291906111a6906147ce565b80601f01602080910402602001604051908101604052809291908181526020018280546111d2906147ce565b801561121f5780601f106111f45761010080835404028352916020019161121f565b820191906000526020600020905b81548152906001019060200180831161120257829003601f168201915b505050505090508383604051611236929190614808565b60405180910390208180519060200120149150509392505050565b611259612151565b610e2c828260016040518060200160405280600081525061252e565b61127d612151565b6040516342d65a8d60e01b81526001600160a01b037f000000000000000000000000000000000000000000000000000000000000000016906342d65a8d906112cd9086908690869060040161490d565b600060405180830381600087803b1580156112e757600080fd5b505af1158015610d5c573d6000803e3d6000fd5b611303612151565b610bb8600c54106113565760405162461bcd60e51b815260206004820152601a60248201527f436f6c6c656374696f6e2069732066756c6c79206d696e7465640000000000006044820152606401610ba8565b60005b818110801561136b5750610bb8600c54105b156113a05761138e83600c5460016040518060200160405280600081525061252e565b600c8054600190810190915501611359565b505050565b6113ad612151565b6040516370a0823160e01b81523060048201526000906001600160a01b038316906370a0823190602401602060405180830381865afa1580156113f4573d6000803e3d6000fd5b505050506040513d601f19601f82011682018060405250810190611418919061492b565b60405163a9059cbb60e01b8152336004820152602481018290529091506001600160a01b0383169063a9059cbb906044016020604051808303816000875af1158015611468573d6000803e3d6000fd5b505050506040513d601f19601f820116820180604052508101906113a09190614944565b61149c8888888888888888612601565b5050505050505050565b61149c8888886114b5896127e8565b6114be896127e8565b888888612601565b6060815183511461152b5760405162461bcd60e51b815260206004820152602960248201527f455243313135353a206163636f756e747320616e6420696473206c656e677468604482015268040dad2e6dac2e8c6d60bb1b6064820152608401610ba8565b600083516001600160401b0381111561154657611546613bab565b60405190808252806020026020018201604052801561156f578160200160208202803683370190505b50905060005b84518110156115e7576115ba85828151811061159357611593614961565b60200260200101518583815181106115ad576115ad614961565b6020026020010151610d65565b8282815181106115cc576115cc614961565b60209081029190910101526115e081614977565b9050611575565b509392505050565b6001600160a01b03851633148061160b575061160b8533610a2c565b6116275760405162461bcd60e51b8152600401610ba890614990565b60005b8451811015611669576116598686838151811061164957611649614961565b6020026020010151868686612397565b61166281614977565b905061162a565b505050505050565b611679612151565b6113a0838383612833565b6001600160a01b0385163314806116a057506116a08533610a2c565b6116bc5760405162461bcd60e51b8152600401610ba890614990565b60005b8451811015611669576116ee868683815181106116de576116de614961565b60200260200101518686866128fe565b6116f781614977565b90506116bf565b33301461175c5760405162461bcd60e51b815260206004820152602660248201527f4e6f6e626c6f636b696e674c7a4170703a2063616c6c6572206d7573742062656044820152650204c7a4170760d41b6064820152608401610ba8565b6116698686868080601f01602080910402602001604051908101604052809392919081815260200183838082843760009201919091525050604080516020601f890181900481028201810190925287815289935091508790879081908401838280828437600092019190915250612a2192505050565b6001600160a01b0383163314806117ee57506117ee8333610a2c565b61180a5760405162461bcd60e51b8152600401610ba890614896565b6113a0838383612b6e565b61181d612151565b6118276000612cfd565b565b60016020526000908152604090208054610e3d906147ce565b6000806118638888611853896127e8565b61185c896127e8565b8888611a29565b91509150965096945050505050565b600e8054610e3d906147ce565b61ffff81166000908152600160205260408120805460609291906118a2906147ce565b80601f01602080910402602001604051908101604052809291908181526020018280546118ce906147ce565b801561191b5780601f106118f05761010080835404028352916020019161191b565b820191906000526020600020905b8154815290600101906020018083116118fe57829003601f168201915b5050505050905080516000036119735760405162461bcd60e51b815260206004820152601d60248201527f4c7a4170703a206e6f20747275737465642070617468207265636f72640000006044820152606401610ba8565b61198e60006014835161198691906149ed565b839190612d4d565b9392505050565b610e2c338383612e5a565b6119a8612151565b8181306040516020016119bd93929190614a00565b60408051601f1981840301815291815261ffff85166000908152600160205220906119e89082614a6c565b507f8c0400cfe2d1199b1a725c78960bcc2a344d869b80590d0f2bd005db15a572ce838383604051611a1c9392919061490d565b60405180910390a1505050565b6000806000878787604051602001611a4393929190614b2b565b60408051601f198184030181529082905263040a7bb160e41b825291506001600160a01b037f000000000000000000000000000000000000000000000000000000000000000016906340a7bb1090611aa7908c90309086908b908b90600401614b6e565b6040805180830381865afa158015611ac3573d6000803e3d6000fd5b505050506040513d601f19601f82011682018060405250810190611ae79190614bc2565b9250925050965096945050505050565b611aff612151565b600480546001600160a01b0319166001600160a01b0383169081179091556040519081527f5db758e995a17ec1ad84bdef7e8c3293a0bd6179bcce400dff5d4c3d87db726b906020015b60405180910390a150565b611b5c612151565b6040516332fb62e760e21b81526001600160a01b037f0000000000000000000000000000000000000000000000000000000000000000169063cbed8b9c90611bb09088908890889088908890600401614be6565b600060405180830381600087803b158015611bca57600080fd5b505af1158015611bde573d6000803e3d6000fd5b505050505050505050565b61ffff86166000908152600560205260408082209051611c0c9088908890614808565b90815260408051602092819003830190206001600160401b03871660009081529252902054905080611c8c5760405162461bcd60e51b815260206004820152602360248201527f4e6f6e626c6f636b696e674c7a4170703a206e6f2073746f726564206d65737360448201526261676560e81b6064820152608401610ba8565b808383604051611c9d929190614808565b604051809103902014611cfc5760405162461bcd60e51b815260206004820152602160248201527f4e6f6e626c6f636b696e674c7a4170703a20696e76616c6964207061796c6f616044820152601960fa1b6064820152608401610ba8565b61ffff87166000908152600560205260408082209051611d1f9089908990614808565b90815260408051602092819003830181206001600160401b038916600090815290845282902093909355601f88018290048202830182019052868252611db7918991899089908190840183828082843760009201919091525050604080516020601f8a018190048102820181019092528881528a935091508890889081908401838280828437600092019190915250612a2192505050565b7fc264d91f3adc5588250e1551f547752ca0cfa8f6b530d243b9f9f4cab10ea8e58787878785604051611dee959493929190614c1f565b60405180910390a150505050505050565b611e07612151565b61ffff83811660008181526002602090815260408083209487168084529482529182902085905581519283528201929092529081018290527f9d5c7c0b934da8fefa9c7760c98383778a12dfbfc0c3b3106518f43fb9508ac090606001611a1c565b611e71612151565b6006805460ff19168215159081179091556040519081527f1584ad594a70cbe1e6515592e1272a987d922b097ead875069cebe8b40c004a490602001611b49565b611eba612151565b61ffff83166000908152600160205260409020611ed8828483614c5a565b507ffa41487ad5d6728f0b19276fa1eddc16558578f5109fc39d2dc33c3230470dab838383604051611a1c9392919061490d565b6001600160a01b038516331480611f285750611f288533610a2c565b611f445760405162461bcd60e51b8152600401610ba890614896565b610f4085858585856128fe565b611f59612151565b6001600160a01b038116611fbe5760405162461bcd60e51b815260206004820152602660248201527f4f776e61626c653a206e6577206f776e657220697320746865207a65726f206160448201526564647265737360d01b6064820152608401610ba8565b610e1781612cfd565b6001600160a01b038316331480611fe35750611fe38333610a2c565b611fff5760405162461bcd60e51b8152600401610ba890614896565b6113a0838383612f3a565b604051633d7b2f6f60e21b815261ffff808616600483015284166024820152306044820152606481018290526060907f00000000000000000000000000000000000000000000000000000000000000006001600160a01b03169063f5ecbdbc90608401600060405180830381865afa15801561208a573d6000803e3d6000fd5b505050506040513d6000823e601f3d908101601f191682016040526120b29190810190614d68565b95945050505050565b60008061211e5a60966366ad5c8a60e01b898989896040516024016120e39493929190614d9c565b60408051601f198184030181529190526020810180516001600160e01b03166001600160e01b03199093169290921790915230929190613041565b91509150816116695761166986868686856130cb565b60006001600160e01b031982161580610df55750610df582613168565b6000546001600160a01b031633146118275760405162461bcd60e51b815260206004820181905260248201527f4f776e61626c653a2063616c6c6572206973206e6f7420746865206f776e65726044820152606401610ba8565b6009610e2c8282614a6c565b6127106001600160601b03821611156121e25760405162461bcd60e51b8152600401610ba890614dda565b6001600160a01b0382166122385760405162461bcd60e51b815260206004820152601960248201527f455243323938313a20696e76616c6964207265636569766572000000000000006044820152606401610ba8565b604080518082019091526001600160a01b039092168083526001600160601b039091166020909201829052600160a01b90910217600a55565b606060098054612280906147ce565b80601f01602080910402602001604051908101604052809291908181526020018280546122ac906147ce565b80156122f95780601f106122ce576101008083540402835291602001916122f9565b820191906000526020600020905b8154815290600101906020018083116122dc57829003601f168201915b50505050509050919050565b606060006123128361318d565b60010190506000816001600160401b0381111561233157612331613bab565b6040519080825280601f01601f19166020018201604052801561235b576020820181803683370190505b5090508181016020015b600019016f181899199a1a9b1b9c1cb0b131b232b360811b600a86061a8153600a850494508461236557509392505050565b81518351146123b85760405162461bcd60e51b8152600401610ba890614e24565b6001600160a01b0384166123de5760405162461bcd60e51b8152600401610ba890614e6c565b3360005b84518110156124c85760008582815181106123ff576123ff614961565b60200260200101519050600085838151811061241d5761241d614961565b60209081029190910181015160008481526007835260408082206001600160a01b038e16835290935291909120549091508181101561246e5760405162461bcd60e51b8152600401610ba890614eb1565b60008381526007602090815260408083206001600160a01b038e8116855292528083208585039055908b168252812080548492906124ad908490614efb565b92505081905550505050806124c190614977565b90506123e2565b50846001600160a01b0316866001600160a01b0316826001600160a01b03167f4a39dc06d4c0dbc64b70af90fd698a233a518aa5d07e595d983b8c0526c8f7fb8787604051612518929190614f0e565b60405180910390a4611669818787878787613265565b6001600160a01b0384166125545760405162461bcd60e51b8152600401610ba890614f33565b336000612560856127e8565b9050600061256d856127e8565b905060008681526007602090815260408083206001600160a01b038b168452909152812080548792906125a1908490614efb565b909155505060408051878152602081018790526001600160a01b03808a1692600092918716917fc3d58168c5ae7397731d063d5bbf3d657854427343f4c083240f7aacaa2d0f62910160405180910390a4610d5c836000898989896133c0565b61260e888888888861347b565b600086868660405160200161262593929190614b2b565b6040516020818303038152906040529050855160010361272a5760065460ff161561265d57612658886001846000613507565b61267c565b81511561267c5760405162461bcd60e51b8152600401610ba890614f74565b61268a8882868686346135dc565b866040516126989190614fb8565b6040518091039020896001600160a01b03168961ffff167f968b0d61ebcf43e5d76ed87bd2c4ee2f22b4969b9f4ca49e3373c025eddd5eeb896000815181106126e3576126e3614961565b6020026020010151896000815181106126fe576126fe614961565b602002602001015160405161271d929190918252602082015260400190565b60405180910390a4611bde565b600186511115611bde5760065460ff16156127525761274d886002846000613507565b612771565b8151156127715760405162461bcd60e51b8152600401610ba890614f74565b61277f8882868686346135dc565b8660405161278d9190614fb8565b6040518091039020896001600160a01b03168961ffff167fddd15f7cfbd674ac2096d598f1650367f8a8bd72b4e3abd85591099ea3b57e3389896040516127d5929190614f0e565b60405180910390a4505050505050505050565b6040805160018082528183019092526060916000919060208083019080368337019050509050828160008151811061282257612822614961565b602090810291909101015292915050565b6127106001600160601b038216111561285e5760405162461bcd60e51b8152600401610ba890614dda565b6001600160a01b0382166128b45760405162461bcd60e51b815260206004820152601b60248201527f455243323938313a20496e76616c696420706172616d657465727300000000006044820152606401610ba8565b6040805180820182526001600160a01b0393841681526001600160601b0392831660208083019182526000968752600b90529190942093519051909116600160a01b029116179055565b6001600160a01b0384166129245760405162461bcd60e51b8152600401610ba890614e6c565b336000612930856127e8565b9050600061293d856127e8565b905060008681526007602090815260408083206001600160a01b038c168452909152902054858110156129825760405162461bcd60e51b8152600401610ba890614eb1565b60008781526007602090815260408083206001600160a01b038d8116855292528083208985039055908a168252812080548892906129c1908490614efb565b909155505060408051888152602081018890526001600160a01b03808b16928c821692918816917fc3d58168c5ae7397731d063d5bbf3d657854427343f4c083240f7aacaa2d0f62910160405180910390a4611bde848a8a8a8a8a6133c0565b600080600083806020019051810190612a3a919061503a565b60148301519295509093509150612a5388828585613781565b8251600103612afc57806001600160a01b031687604051612a749190614fb8565b60405180910390208961ffff167f1bf64e58d19fc43de4c44b3d1bb1fae313979af831a7a39f3297564294329f0f86600081518110612ab557612ab5614961565b602002602001015186600081518110612ad057612ad0614961565b6020026020010151604051612aef929190918252602082015260400190565b60405180910390a461149c565b60018351111561149c57806001600160a01b031687604051612b1e9190614fb8565b60405180910390208961ffff167f1ae08edbbcd7baa8d064835de8593ce16b313414525ac89534e349f4da7926e48686604051612b5c929190614f0e565b60405180910390a45050505050505050565b6001600160a01b038316612b945760405162461bcd60e51b8152600401610ba8906150b7565b8051825114612bb55760405162461bcd60e51b8152600401610ba890614e24565b604080516020810190915260009081905233905b8351811015612c8e576000848281518110612be657612be6614961565b602002602001015190506000848381518110612c0457612c04614961565b60209081029190910181015160008481526007835260408082206001600160a01b038c168352909352919091205490915081811015612c555760405162461bcd60e51b8152600401610ba8906150fa565b60009283526007602090815260408085206001600160a01b038b1686529091529092209103905580612c8681614977565b915050612bc9565b5060006001600160a01b0316846001600160a01b0316826001600160a01b03167f4a39dc06d4c0dbc64b70af90fd698a233a518aa5d07e595d983b8c0526c8f7fb8686604051612cdf929190614f0e565b60405180910390a46040805160208101909152600090525b50505050565b600080546001600160a01b038381166001600160a01b0319831681178455604051919092169283917f8be0079c531659141344cd1fd0a4f28419497f9722a3daafe3b4186f6b6457e09190a35050565b606081612d5b81601f614efb565b1015612d9a5760405162461bcd60e51b815260206004820152600e60248201526d736c6963655f6f766572666c6f7760901b6044820152606401610ba8565b612da48284614efb565b84511015612de85760405162461bcd60e51b8152602060048201526011602482015270736c6963655f6f75744f66426f756e647360781b6044820152606401610ba8565b606082158015612e075760405191506000825260208201604052612e51565b6040519150601f8416801560200281840101858101878315602002848b0101015b81831015612e40578051835260209283019201612e28565b5050858452601f01601f1916604052505b50949350505050565b816001600160a01b0316836001600160a01b031603612ecd5760405162461bcd60e51b815260206004820152602960248201527f455243313135353a2073657474696e6720617070726f76616c20737461747573604482015268103337b91039b2b63360b91b6064820152608401610ba8565b6001600160a01b03838116600081815260086020908152604080832094871680845294825291829020805460ff191686151590811790915591519182527f17307eab39ab6107e8899845ad3d59bd9653f200f220920489ca2b5937696c31910160405180910390a3505050565b6001600160a01b038316612f605760405162461bcd60e51b8152600401610ba8906150b7565b336000612f6c846127e8565b90506000612f79846127e8565b6040805160208082018352600091829052888252600781528282206001600160a01b038b1683529052205490915084811015612fc75760405162461bcd60e51b8152600401610ba8906150fa565b60008681526007602090815260408083206001600160a01b038b81168086529184528285208a8703905582518b81529384018a90529092908816917fc3d58168c5ae7397731d063d5bbf3d657854427343f4c083240f7aacaa2d0f62910160405180910390a4604080516020810190915260009052610d5c565b6000606060008060008661ffff166001600160401b0381111561306657613066613bab565b6040519080825280601f01601f191660200182016040528015613090576020820181803683370190505b50905060008087516020890160008d8df191503d9250868311156130b2578692505b828152826000602083013e909890975095505050505050565b8180519060200120600560008761ffff1661ffff168152602001908152602001600020856040516130fc9190614fb8565b9081526040805191829003602090810183206001600160401b0388166000908152915220919091557fe183f33de2837795525b4792ca4cd60535bd77c53b7e7030060bfcf5734d6b0c90613159908790879087908790879061513e565b60405180910390a15050505050565b60006001600160e01b0319821663152a902d60e11b1480610df55750610df58261379c565b60008072184f03e93ff9f4daa797ed6e38ed64bf6a1f0160401b83106131cc5772184f03e93ff9f4daa797ed6e38ed64bf6a1f0160401b830492506040015b6d04ee2d6d415b85acef810000000083106131f8576d04ee2d6d415b85acef8100000000830492506020015b662386f26fc10000831061321657662386f26fc10000830492506010015b6305f5e100831061322e576305f5e100830492506008015b612710831061324257612710830492506004015b60648310613254576064830492506002015b600a8310610df55760010192915050565b6001600160a01b0384163b156116695760405163bc197c8160e01b81526001600160a01b0385169063bc197c81906132a99089908990889088908890600401615190565b6020604051808303816000875af19250505080156132e4575060408051601f3d908101601f191682019092526132e1918101906151ce565b60015b613390576132f06151eb565b806308c379a0036133295750613304615207565b8061330f575061332b565b8060405162461bcd60e51b8152600401610ba89190613d46565b505b60405162461bcd60e51b815260206004820152603460248201527f455243313135353a207472616e7366657220746f206e6f6e2d455243313135356044820152732932b1b2b4bb32b91034b6b83632b6b2b73a32b960611b6064820152608401610ba8565b6001600160e01b0319811663bc197c8160e01b14610d5c5760405162461bcd60e51b8152600401610ba890615290565b6001600160a01b0384163b156116695760405163f23a6e6160e01b81526001600160a01b0385169063f23a6e619061340490899089908890889088906004016152d8565b6020604051808303816000875af192505050801561343f575060408051601f3d908101601f1916820190925261343c918101906151ce565b60015b61344b576132f06151eb565b6001600160e01b0319811663f23a6e6160e01b14610d5c5760405162461bcd60e51b8152600401610ba890615290565b336001600160a01b03861681148061349857506134988682610a2c565b6134fc5760405162461bcd60e51b815260206004820152602f60248201527f4f4e4654313135353a2073656e642063616c6c6572206973206e6f74206f776e60448201526e195c881b9bdc88185c1c1c9bdd9959608a1b6064820152608401610ba8565b611669868484612b6e565b6000613512836137dc565b61ffff808716600090815260026020908152604080832093891683529290522054909150806135835760405162461bcd60e51b815260206004820152601a60248201527f4c7a4170703a206d696e4761734c696d6974206e6f74207365740000000000006044820152606401610ba8565b61358d8382614efb565b8210156116695760405162461bcd60e51b815260206004820152601b60248201527f4c7a4170703a20676173206c696d697420697320746f6f206c6f7700000000006044820152606401610ba8565b61ffff8616600090815260016020526040812080546135fa906147ce565b80601f0160208091040260200160405190810160405280929190818152602001828054613626906147ce565b80156136735780601f1061364857610100808354040283529160200191613673565b820191906000526020600020905b81548152906001019060200180831161365657829003601f168201915b5050505050905080516000036136e45760405162461bcd60e51b815260206004820152603060248201527f4c7a4170703a2064657374696e6174696f6e20636861696e206973206e6f742060448201526f61207472757374656420736f7572636560801b6064820152608401610ba8565b6136ef878751613838565b60405162c5803160e81b81526001600160a01b037f0000000000000000000000000000000000000000000000000000000000000000169063c5803100908490613746908b9086908c908c908c908c90600401615312565b6000604051808303818588803b15801561375f57600080fd5b505af1158015613773573d6000803e3d6000fd5b505050505050505050505050565b612cf7838383604051806020016040528060008152506138a9565b60006001600160e01b03198216636cdb3d1360e11b14806137cd57506001600160e01b031982166303a24d0760e21b145b80610df55750610df5826139f5565b60006022825110156138305760405162461bcd60e51b815260206004820152601c60248201527f4c7a4170703a20696e76616c69642061646170746572506172616d73000000006044820152606401610ba8565b506022015190565b61ffff82166000908152600360205260408120549081900361385957506127105b808211156113a05760405162461bcd60e51b815260206004820181905260248201527f4c7a4170703a207061796c6f61642073697a6520697320746f6f206c617267656044820152606401610ba8565b6001600160a01b0384166138cf5760405162461bcd60e51b8152600401610ba890614f33565b81518351146138f05760405162461bcd60e51b8152600401610ba890614e24565b3360005b845181101561398d5783818151811061390f5761390f614961565b60200260200101516007600087848151811061392d5761392d614961565b602002602001015181526020019081526020016000206000886001600160a01b03166001600160a01b0316815260200190815260200160002060008282546139759190614efb565b9091555081905061398581614977565b9150506138f4565b50846001600160a01b031660006001600160a01b0316826001600160a01b03167f4a39dc06d4c0dbc64b70af90fd698a233a518aa5d07e595d983b8c0526c8f7fb87876040516139de929190614f0e565b60405180910390a4610f4081600087878787613265565b60006001600160e01b031982166319abbbbb60e11b1480610df557506301ffc9a760e01b6001600160e01b0319831614610df5565b803561ffff81168114613a3c57600080fd5b919050565b60008083601f840112613a5357600080fd5b5081356001600160401b03811115613a6a57600080fd5b60208301915083602082850101111561110257600080fd5b80356001600160401b0381168114613a3c57600080fd5b60008060008060008060808789031215613ab257600080fd5b613abb87613a2a565b955060208701356001600160401b0380821115613ad757600080fd5b613ae38a838b01613a41565b9097509550859150613af760408a01613a82565b94506060890135915080821115613b0d57600080fd5b50613b1a89828a01613a41565b979a9699509497509295939492505050565b6001600160a01b0381168114610e1757600080fd5b8035613a3c81613b2c565b60008060408385031215613b5f57600080fd5b8235613b6a81613b2c565b946020939093013593505050565b6001600160e01b031981168114610e1757600080fd5b600060208284031215613ba057600080fd5b813561198e81613b78565b634e487b7160e01b600052604160045260246000fd5b601f8201601f191681016001600160401b0381118282101715613be657613be6613bab565b6040525050565b60006001600160401b03821115613c0657613c06613bab565b50601f01601f191660200190565b6000613c1f83613bed565b604051613c2c8282613bc1565b809250848152858585011115613c4157600080fd5b8484602083013760006020868301015250509392505050565b600060208284031215613c6c57600080fd5b81356001600160401b03811115613c8257600080fd5b8201601f81018413613c9357600080fd5b613ca284823560208401613c14565b949350505050565b80356001600160601b0381168114613a3c57600080fd5b60008060408385031215613cd457600080fd5b8235613cdf81613b2c565b9150613ced60208401613caa565b90509250929050565b60005b83811015613d11578181015183820152602001613cf9565b50506000910152565b60008151808452613d32816020860160208601613cf6565b601f01601f19169290920160200192915050565b60208152600061198e6020830184613d1a565b600060208284031215613d6b57600080fd5b61198e82613a2a565b60008060408385031215613d8757600080fd5b613b6a83613a2a565b600060208284031215613da257600080fd5b5035919050565b60008060408385031215613dbc57600080fd5b50508035926020909101359150565b60006001600160401b03821115613de457613de4613bab565b5060051b60200190565b600082601f830112613dff57600080fd5b81356020613e0c82613dcb565b604051613e198282613bc1565b83815260059390931b8501820192828101915086841115613e3957600080fd5b8286015b84811015613e545780358352918301918301613e3d565b509695505050505050565b600082601f830112613e7057600080fd5b61198e83833560208501613c14565b600080600080600060a08688031215613e9757600080fd5b8535613ea281613b2c565b94506020860135613eb281613b2c565b935060408601356001600160401b0380821115613ece57600080fd5b613eda89838a01613dee565b94506060880135915080821115613ef057600080fd5b613efc89838a01613dee565b93506080880135915080821115613f1257600080fd5b50613f1f88828901613e5f565b9150509295509295909350565b600080600060408486031215613f4157600080fd5b613f4a84613a2a565b925060208401356001600160401b03811115613f6557600080fd5b613f7186828701613a41565b9497909650939450505050565b600060208284031215613f9057600080fd5b813561198e81613b2c565b600080600080600080600080610100898b031215613fb857600080fd5b613fc189613b41565b9750613fcf60208a01613a2a565b965060408901356001600160401b0380821115613feb57600080fd5b613ff78c838d01613e5f565b975060608b013591508082111561400d57600080fd5b6140198c838d01613dee565b965060808b013591508082111561402f57600080fd5b61403b8c838d01613dee565b955061404960a08c01613b41565b945061405760c08c01613b41565b935060e08b013591508082111561406d57600080fd5b5061407a8b828c01613e5f565b9150509295985092959890939650565b600080600080600080600080610100898b0312156140a757600080fd5b88356140b281613b2c565b97506140c060208a01613a2a565b965060408901356001600160401b03808211156140dc57600080fd5b6140e88c838d01613e5f565b975060608b0135965060808b0135955060a08b0135915061410882613b2c565b90935060c08a01359061411a82613b2c565b90925060e08a0135908082111561406d57600080fd5b600082601f83011261414157600080fd5b8135602061414e82613dcb565b60405161415b8282613bc1565b83815260059390931b850182019282810191508684111561417b57600080fd5b8286015b84811015613e5457803561419281613b2c565b835291830191830161417f565b600080604083850312156141b257600080fd5b82356001600160401b03808211156141c957600080fd5b6141d586838701614130565b935060208501359150808211156141eb57600080fd5b506141f885828601613dee565b9150509250929050565b600081518084526020808501945080840160005b8381101561423257815187529582019590820190600101614216565b509495945050505050565b60208152600061198e6020830184614202565b600080600080600060a0868803121561426857600080fd5b853561427381613b2c565b945060208601356001600160401b038082111561428f57600080fd5b61429b89838a01614130565b95506040880135915080821115613ece57600080fd5b6000806000606084860312156142c657600080fd5b8335925060208401356142d881613b2c565b91506142e660408501613caa565b90509250925092565b60008060006060848603121561430457600080fd5b61430d84613a2a565b925060208401356001600160401b0381111561432857600080fd5b61433486828701613e5f565b9250506142e660408501613a82565b600080600080600060a0868803121561435b57600080fd5b853561436681613b2c565b945060208601356001600160401b038082111561438257600080fd5b61438e89838a01614130565b955060408801359450606088013593506080880135915080821115613f1257600080fd5b6000806000606084860312156143c757600080fd5b83356143d281613b2c565b925060208401356001600160401b03808211156143ee57600080fd5b6143fa87838801613dee565b9350604086013591508082111561441057600080fd5b5061441d86828701613dee565b9150509250925092565b8015158114610e1757600080fd5b8035613a3c81614427565b60008060008060008060c0878903121561445957600080fd5b61446287613a2a565b955060208701356001600160401b038082111561447e57600080fd5b61448a8a838b01613e5f565b96506040890135955060608901359450608089013591506144aa82614427565b90925060a088013590808211156144c057600080fd5b506144cd89828a01613e5f565b9150509295509295509295565b600080604083850312156144ed57600080fd5b6144f683613a2a565b9150613ced60208401613a2a565b6000806040838503121561451757600080fd5b823561452281613b2c565b9150602083013561453281614427565b809150509250929050565b60008060008060008060c0878903121561455657600080fd5b61455f87613a2a565b955060208701356001600160401b038082111561457b57600080fd5b6145878a838b01613e5f565b9650604089013591508082111561459d57600080fd5b6145a98a838b01613dee565b955060608901359150808211156145bf57600080fd5b6145cb8a838b01613dee565b94506145d960808a01614435565b935060a08901359150808211156144c057600080fd5b60008060008060006080868803121561460757600080fd5b61461086613a2a565b945061461e60208701613a2a565b93506040860135925060608601356001600160401b0381111561464057600080fd5b61464c88828901613a41565b969995985093965092949392505050565b60008060006060848603121561467257600080fd5b61467b84613a2a565b925061468960208501613a2a565b9150604084013590509250925092565b600080604083850312156146ac57600080fd5b82356146b781613b2c565b9150602083013561453281613b2c565b6000602082840312156146d957600080fd5b813561198e81614427565b600080600080600060a086880312156146fc57600080fd5b853561470781613b2c565b9450602086013561471781613b2c565b9350604086013592506060860135915060808601356001600160401b0381111561474057600080fd5b613f1f88828901613e5f565b60008060006060848603121561476157600080fd5b833561476c81613b2c565b95602085013595506040909401359392505050565b6000806000806080858703121561479757600080fd5b6147a085613a2a565b93506147ae60208601613a2a565b925060408501356147be81613b2c565b9396929550929360600135925050565b600181811c908216806147e257607f821691505b60208210810361480257634e487b7160e01b600052602260045260246000fd5b50919050565b8183823760009101908152919050565b6000835161482a818460208801613cf6565b83519083019061483e818360208801613cf6565b01949350505050565b634e487b7160e01b600052601160045260246000fd5b8082028115828204841417610df557610df5614847565b60008261489157634e487b7160e01b600052601260045260246000fd5b500490565b6020808252602e908201527f455243313135353a2063616c6c6572206973206e6f7420746f6b656e206f776e60408201526d195c881bdc88185c1c1c9bdd995960921b606082015260800190565b81835281816020850137506000828201602090810191909152601f909101601f19169091010190565b61ffff841681526040602082015260006120b26040830184866148e4565b60006020828403121561493d57600080fd5b5051919050565b60006020828403121561495657600080fd5b815161198e81614427565b634e487b7160e01b600052603260045260246000fd5b60006001820161498957614989614847565b5060010190565b60208082526037908201527f457874656e6465644f4e4654313135353a2063616c6c6572206973206e6f742060408201527f746f6b656e206f776e6572206f7220617070726f766564000000000000000000606082015260800190565b81810381811115610df557610df5614847565b8284823760609190911b6bffffffffffffffffffffffff19169101908152601401919050565b601f8211156113a057600081815260208120601f850160051c81016020861015614a4d5750805b601f850160051c820191505b8181101561166957828155600101614a59565b81516001600160401b03811115614a8557614a85613bab565b614a9981614a9384546147ce565b84614a26565b602080601f831160018114614ace5760008415614ab65750858301515b600019600386901b1c1916600185901b178555611669565b600085815260208120601f198616915b82811015614afd57888601518255948401946001909101908401614ade565b5085821015614b1b5787850151600019600388901b60f8161c191681555b5050505050600190811b01905550565b606081526000614b3e6060830186613d1a565b8281036020840152614b508186614202565b90508281036040840152614b648185614202565b9695505050505050565b61ffff861681526001600160a01b038516602082015260a060408201819052600090614b9c90830186613d1a565b84151560608401528281036080840152614bb68185613d1a565b98975050505050505050565b60008060408385031215614bd557600080fd5b505080516020909101519092909150565b600061ffff808816835280871660208401525084604083015260806060830152614c146080830184866148e4565b979650505050505050565b61ffff86168152608060208201526000614c3d6080830186886148e4565b6001600160401b0394909416604083015250606001529392505050565b6001600160401b03831115614c7157614c71613bab565b614c8583614c7f83546147ce565b83614a26565b6000601f841160018114614cb95760008515614ca15750838201355b600019600387901b1c1916600186901b178355610f40565b600083815260209020601f19861690835b82811015614cea5786850135825560209485019460019092019101614cca565b5086821015614d075760001960f88860031b161c19848701351681555b505060018560011b0183555050505050565b600082601f830112614d2a57600080fd5b8151614d3581613bed565b604051614d428282613bc1565b828152856020848701011115614d5757600080fd5b6120b2836020830160208801613cf6565b600060208284031215614d7a57600080fd5b81516001600160401b03811115614d9057600080fd5b613ca284828501614d19565b61ffff85168152608060208201526000614db96080830186613d1a565b6001600160401b03851660408401528281036060840152614c148185613d1a565b6020808252602a908201527f455243323938313a20726f79616c7479206665652077696c6c206578636565646040820152692073616c65507269636560b01b606082015260800190565b60208082526028908201527f455243313135353a2069647320616e6420616d6f756e7473206c656e677468206040820152670dad2e6dac2e8c6d60c31b606082015260800190565b60208082526025908201527f455243313135353a207472616e7366657220746f20746865207a65726f206164604082015264647265737360d81b606082015260800190565b6020808252602a908201527f455243313135353a20696e73756666696369656e742062616c616e636520666f60408201526939103a3930b739b332b960b11b606082015260800190565b80820180821115610df557610df5614847565b604081526000614f216040830185614202565b82810360208401526120b28185614202565b60208082526021908201527f455243313135353a206d696e7420746f20746865207a65726f206164647265736040820152607360f81b606082015260800190565b60208082526024908201527f4c7a4170703a205f61646170746572506172616d73206d75737420626520656d604082015263383a3c9760e11b606082015260800190565b60008251614fca818460208701613cf6565b9190910192915050565b600082601f830112614fe557600080fd5b81516020614ff282613dcb565b604051614fff8282613bc1565b83815260059390931b850182019282810191508684111561501f57600080fd5b8286015b84811015613e545780518352918301918301615023565b60008060006060848603121561504f57600080fd5b83516001600160401b038082111561506657600080fd5b61507287838801614d19565b9450602086015191508082111561508857600080fd5b61509487838801614fd4565b935060408601519150808211156150aa57600080fd5b5061441d86828701614fd4565b60208082526023908201527f455243313135353a206275726e2066726f6d20746865207a65726f206164647260408201526265737360e81b606082015260800190565b60208082526024908201527f455243313135353a206275726e20616d6f756e7420657863656564732062616c604082015263616e636560e01b606082015260800190565b61ffff8616815260a06020820152600061515b60a0830187613d1a565b6001600160401b0386166040840152828103606084015261517c8186613d1a565b90508281036080840152614bb68185613d1a565b6001600160a01b0386811682528516602082015260a0604082018190526000906151bc90830186614202565b828103606084015261517c8186614202565b6000602082840312156151e057600080fd5b815161198e81613b78565b600060033d11156152045760046000803e5060005160e01c5b90565b600060443d10156152155790565b6040516003193d81016004833e81513d6001600160401b03816024840111818411171561524457505050505090565b828501915081518181111561525c5750505050505090565b843d87010160208285010111156152765750505050505090565b61528560208286010187613bc1565b509095945050505050565b60208082526028908201527f455243313135353a204552433131353552656365697665722072656a656374656040820152676420746f6b656e7360c01b606082015260800190565b6001600160a01b03868116825285166020820152604081018490526060810183905260a060808201819052600090614c1490830184613d1a565b61ffff8716815260c06020820152600061532f60c0830188613d1a565b82810360408401526153418188613d1a565b6001600160a01b0387811660608601528616608085015283810360a0850152905061536c8185613d1a565b999850505050505050505056fea2646970667358221220e8fde1434c428951b82c3d573d62740a52be61d873c98fb337d2183ff654505e64736f6c63430008120033",
  "devdoc": {
    "events": {
      "ApprovalForAll(address,address,bool)": {
        "details": "Emitted when `account` grants or revokes permission to `operator` to transfer their tokens, according to `approved`."
      },
      "TransferBatch(address,address,address,uint256[],uint256[])": {
        "details": "Equivalent to multiple {TransferSingle} events, where `operator`, `from` and `to` are the same for all transfers."
      },
      "TransferSingle(address,address,address,uint256,uint256)": {
        "details": "Emitted when `value` tokens of token type `id` are transferred from `from` to `to` by `operator`."
      },
      "URI(string,uint256)": {
        "details": "Emitted when the URI for token type `id` changes to `value`, if it is a non-programmatic URI. If an {URI} event was emitted for `id`, the standard https://eips.ethereum.org/EIPS/eip-1155#metadata-extensions[guarantees] that `value` will equal the value returned by {IERC1155MetadataURI-uri}."
      }
    },
    "kind": "dev",
    "methods": {
      "balanceOf(address,uint256)": {
        "details": "See {IERC1155-balanceOf}. Requirements: - `account` cannot be the zero address."
      },
      "balanceOfBatch(address[],uint256[])": {
        "details": "See {IERC1155-balanceOfBatch}. Requirements: - `accounts` and `ids` must have the same length."
      },
      "isApprovedForAll(address,address)": {
        "details": "See {IERC1155-isApprovedForAll}."
      },
      "multiBatchTransferFrom(address,address[],uint256[],uint256[],bytes)": {
        "details": "Batch transfer to multiple recipients."
      },
      "multiTransferFrom(address,address[],uint256,uint256,bytes)": {
        "details": "Transfer to multiple recipients."
      },
      "owner()": {
        "details": "Returns the address of the current owner."
      },
      "renounceOwnership()": {
        "details": "Leaves the contract without owner. It will not be possible to call `onlyOwner` functions. Can only be called by the current owner. NOTE: Renouncing ownership will leave the contract without an owner, thereby disabling any functionality that is only available to the owner."
      },
      "royaltyInfo(uint256,uint256)": {
        "details": "Returns how much royalty is owed and to whom, based on a sale price that may be denominated in any unit of exchange. The royalty amount is denominated and should be paid in that same unit of exchange."
      },
      "safeBatchTransferFrom(address,address,uint256[],uint256[],bytes)": {
        "details": "See {IERC1155-safeBatchTransferFrom}."
      },
      "safeTransferFrom(address,address,uint256,uint256,bytes)": {
        "details": "See {IERC1155-safeTransferFrom}."
      },
      "setApprovalForAll(address,bool)": {
        "details": "See {IERC1155-setApprovalForAll}."
      },
      "setDefaultRoyalty(address,uint96)": {
        "details": "Sets the royalty information that all ids in this contract will default to."
      },
      "setTokenRoyalty(uint256,address,uint96)": {
        "details": "Sets the royalty information for a specific token id, overriding the global default."
      },
      "setURI(string)": {
        "details": "Sets a new token metadata URI."
      },
      "supportsInterface(bytes4)": {
        "details": "See {IERC165-supportsInterface}."
      },
      "transferOwnership(address)": {
        "details": "Transfers ownership of the contract to a new account (`newOwner`). Can only be called by the current owner."
      },
      "uri(uint256)": {
        "details": "See {IERC1155MetadataURI-uri}. Includes check for token existence."
      }
    },
    "stateVariables": {
      "__gap": {
        "details": "This empty reserved space is put in place to allow future versions to add new variables without shifting down storage in the inheritance chain. See https://docs.openzeppelin.com/contracts/4.x/upgradeable#storage_gaps"
      }
    },
    "version": 1
  },
  "userdoc": {
    "kind": "user",
    "methods": {},
    "version": 1
  },
  "storageLayout": {
    "storage": [
      {
        "astId": 7,
        "contract": "contracts/ArmourX1155.sol:AX1155",
        "label": "_owner",
        "offset": 0,
        "slot": "0",
        "type": "t_address"
      },
      {
        "astId": 4813,
        "contract": "contracts/ArmourX1155.sol:AX1155",
        "label": "trustedRemoteLookup",
        "offset": 0,
        "slot": "1",
        "type": "t_mapping(t_uint16,t_bytes_storage)"
      },
      {
        "astId": 4819,
        "contract": "contracts/ArmourX1155.sol:AX1155",
        "label": "minDstGasLookup",
        "offset": 0,
        "slot": "2",
        "type": "t_mapping(t_uint16,t_mapping(t_uint16,t_uint256))"
      },
      {
        "astId": 4823,
        "contract": "contracts/ArmourX1155.sol:AX1155",
        "label": "payloadSizeLimitLookup",
        "offset": 0,
        "slot": "3",
        "type": "t_mapping(t_uint16,t_uint256)"
      },
      {
        "astId": 4825,
        "contract": "contracts/ArmourX1155.sol:AX1155",
        "label": "precrime",
        "offset": 0,
        "slot": "4",
        "type": "t_address"
      },
      {
        "astId": 5355,
        "contract": "contracts/ArmourX1155.sol:AX1155",
        "label": "failedMessages",
        "offset": 0,
        "slot": "5",
        "type": "t_mapping(t_uint16,t_mapping(t_bytes_memory_ptr,t_mapping(t_uint64,t_bytes32)))"
      },
      {
        "astId": 3984,
        "contract": "contracts/ArmourX1155.sol:AX1155",
        "label": "useCustomAdapterParams",
        "offset": 0,
        "slot": "6",
        "type": "t_bool"
      },
      {
        "astId": 160,
        "contract": "contracts/ArmourX1155.sol:AX1155",
        "label": "_balances",
        "offset": 0,
        "slot": "7",
        "type": "t_mapping(t_uint256,t_mapping(t_address,t_uint256))"
      },
      {
        "astId": 166,
        "contract": "contracts/ArmourX1155.sol:AX1155",
        "label": "_operatorApprovals",
        "offset": 0,
        "slot": "8",
        "type": "t_mapping(t_address,t_mapping(t_address,t_bool))"
      },
      {
        "astId": 168,
        "contract": "contracts/ArmourX1155.sol:AX1155",
        "label": "_uri",
        "offset": 0,
        "slot": "9",
        "type": "t_string_storage"
      },
      {
        "astId": 1699,
        "contract": "contracts/ArmourX1155.sol:AX1155",
        "label": "_defaultRoyaltyInfo",
        "offset": 0,
        "slot": "10",
        "type": "t_struct(RoyaltyInfo)1696_storage"
      },
      {
        "astId": 1704,
        "contract": "contracts/ArmourX1155.sol:AX1155",
        "label": "_tokenRoyaltyInfo",
        "offset": 0,
        "slot": "11",
        "type": "t_mapping(t_uint256,t_struct(RoyaltyInfo)1696_storage)"
      },
      {
        "astId": 3498,
        "contract": "contracts/ArmourX1155.sol:AX1155",
        "label": "mintCount",
        "offset": 0,
        "slot": "12",
        "type": "t_uint256"
      },
      {
        "astId": 3504,
        "contract": "contracts/ArmourX1155.sol:AX1155",
        "label": "name",
        "offset": 0,
        "slot": "13",
        "type": "t_string_storage"
      },
      {
        "astId": 3507,
        "contract": "contracts/ArmourX1155.sol:AX1155",
        "label": "symbol",
        "offset": 0,
        "slot": "14",
        "type": "t_string_storage"
      },
      {
        "astId": 3849,
        "contract": "contracts/ArmourX1155.sol:AX1155",
        "label": "__gap",
        "offset": 0,
        "slot": "15",
        "type": "t_array(t_uint256)48_storage"
      }
    ],
    "types": {
      "t_address": {
        "encoding": "inplace",
        "label": "address",
        "numberOfBytes": "20"
      },
      "t_array(t_uint256)48_storage": {
        "base": "t_uint256",
        "encoding": "inplace",
        "label": "uint256[48]",
        "numberOfBytes": "1536"
      },
      "t_bool": {
        "encoding": "inplace",
        "label": "bool",
        "numberOfBytes": "1"
      },
      "t_bytes32": {
        "encoding": "inplace",
        "label": "bytes32",
        "numberOfBytes": "32"
      },
      "t_bytes_memory_ptr": {
        "encoding": "bytes",
        "label": "bytes",
        "numberOfBytes": "32"
      },
      "t_bytes_storage": {
        "encoding": "bytes",
        "label": "bytes",
        "numberOfBytes": "32"
      },
      "t_mapping(t_address,t_bool)": {
        "encoding": "mapping",
        "key": "t_address",
        "label": "mapping(address => bool)",
        "numberOfBytes": "32",
        "value": "t_bool"
      },
      "t_mapping(t_address,t_mapping(t_address,t_bool))": {
        "encoding": "mapping",
        "key": "t_address",
        "label": "mapping(address => mapping(address => bool))",
        "numberOfBytes": "32",
        "value": "t_mapping(t_address,t_bool)"
      },
      "t_mapping(t_address,t_uint256)": {
        "encoding": "mapping",
        "key": "t_address",
        "label": "mapping(address => uint256)",
        "numberOfBytes": "32",
        "value": "t_uint256"
      },
      "t_mapping(t_bytes_memory_ptr,t_mapping(t_uint64,t_bytes32))": {
        "encoding": "mapping",
        "key": "t_bytes_memory_ptr",
        "label": "mapping(bytes => mapping(uint64 => bytes32))",
        "numberOfBytes": "32",
        "value": "t_mapping(t_uint64,t_bytes32)"
      },
      "t_mapping(t_uint16,t_bytes_storage)": {
        "encoding": "mapping",
        "key": "t_uint16",
        "label": "mapping(uint16 => bytes)",
        "numberOfBytes": "32",
        "value": "t_bytes_storage"
      },
      "t_mapping(t_uint16,t_mapping(t_bytes_memory_ptr,t_mapping(t_uint64,t_bytes32)))": {
        "encoding": "mapping",
        "key": "t_uint16",
        "label": "mapping(uint16 => mapping(bytes => mapping(uint64 => bytes32)))",
        "numberOfBytes": "32",
        "value": "t_mapping(t_bytes_memory_ptr,t_mapping(t_uint64,t_bytes32))"
      },
      "t_mapping(t_uint16,t_mapping(t_uint16,t_uint256))": {
        "encoding": "mapping",
        "key": "t_uint16",
        "label": "mapping(uint16 => mapping(uint16 => uint256))",
        "numberOfBytes": "32",
        "value": "t_mapping(t_uint16,t_uint256)"
      },
      "t_mapping(t_uint16,t_uint256)": {
        "encoding": "mapping",
        "key": "t_uint16",
        "label": "mapping(uint16 => uint256)",
        "numberOfBytes": "32",
        "value": "t_uint256"
      },
      "t_mapping(t_uint256,t_mapping(t_address,t_uint256))": {
        "encoding": "mapping",
        "key": "t_uint256",
        "label": "mapping(uint256 => mapping(address => uint256))",
        "numberOfBytes": "32",
        "value": "t_mapping(t_address,t_uint256)"
      },
      "t_mapping(t_uint256,t_struct(RoyaltyInfo)1696_storage)": {
        "encoding": "mapping",
        "key": "t_uint256",
        "label": "mapping(uint256 => struct ERC2981.RoyaltyInfo)",
        "numberOfBytes": "32",
        "value": "t_struct(RoyaltyInfo)1696_storage"
      },
      "t_mapping(t_uint64,t_bytes32)": {
        "encoding": "mapping",
        "key": "t_uint64",
        "label": "mapping(uint64 => bytes32)",
        "numberOfBytes": "32",
        "value": "t_bytes32"
      },
      "t_string_storage": {
        "encoding": "bytes",
        "label": "string",
        "numberOfBytes": "32"
      },
      "t_struct(RoyaltyInfo)1696_storage": {
        "encoding": "inplace",
        "label": "struct ERC2981.RoyaltyInfo",
        "members": [
          {
            "astId": 1693,
            "contract": "contracts/ArmourX1155.sol:AX1155",
            "label": "receiver",
            "offset": 0,
            "slot": "0",
            "type": "t_address"
          },
          {
            "astId": 1695,
            "contract": "contracts/ArmourX1155.sol:AX1155",
            "label": "royaltyFraction",
            "offset": 20,
            "slot": "0",
            "type": "t_uint96"
          }
        ],
        "numberOfBytes": "32"
      },
      "t_uint16": {
        "encoding": "inplace",
        "label": "uint16",
        "numberOfBytes": "2"
      },
      "t_uint256": {
        "encoding": "inplace",
        "label": "uint256",
        "numberOfBytes": "32"
      },
      "t_uint64": {
        "encoding": "inplace",
        "label": "uint64",
        "numberOfBytes": "8"
      },
      "t_uint96": {
        "encoding": "inplace",
        "label": "uint96",
        "numberOfBytes": "12"
      }
    }
  }
}