{
  "address": "0x6093aB37D167145B79aE04cB58D5A132e2D6AD05",
  "abi": [
    {
      "inputs": [
        {
          "internalType": "string",
          "name": "_uri",
          "type": "string"
        },
        {
          "internalType": "uint96",
          "name": "_royaltyBasePoints",
          "type": "uint96"
        },
        {
          "internalType": "address",
          "name": "_lzEndpoint",
          "type": "address"
        }
      ],
      "stateMutability": "nonpayable",
      "type": "constructor"
    },
    {
      "anonymous": false,
      "inputs": [
        {
          "indexed": true,
          "internalType": "address",
          "name": "account",
          "type": "address"
        },
        {
          "indexed": true,
          "internalType": "address",
          "name": "operator",
          "type": "address"
        },
        {
          "indexed": false,
          "internalType": "bool",
          "name": "approved",
          "type": "bool"
        }
      ],
      "name": "ApprovalForAll",
      "type": "event"
    },
    {
      "anonymous": false,
      "inputs": [
        {
          "indexed": false,
          "internalType": "uint16",
          "name": "_srcChainId",
          "type": "uint16"
        },
        {
          "indexed": false,
          "internalType": "bytes",
          "name": "_srcAddress",
          "type": "bytes"
        },
        {
          "indexed": false,
          "internalType": "uint64",
          "name": "_nonce",
          "type": "uint64"
        },
        {
          "indexed": false,
          "internalType": "bytes",
          "name": "_payload",
          "type": "bytes"
        },
        {
          "indexed": false,
          "internalType": "bytes",
          "name": "_reason",
          "type": "bytes"
        }
      ],
      "name": "MessageFailed",
      "type": "event"
    },
    {
      "anonymous": false,
      "inputs": [
        {
          "indexed": true,
          "internalType": "address",
          "name": "previousOwner",
          "type": "address"
        },
        {
          "indexed": true,
          "internalType": "address",
          "name": "newOwner",
          "type": "address"
        }
      ],
      "name": "OwnershipTransferred",
      "type": "event"
    },
    {
      "anonymous": false,
      "inputs": [
        {
          "indexed": true,
          "internalType": "uint16",
          "name": "_srcChainId",
          "type": "uint16"
        },
        {
          "indexed": true,
          "internalType": "bytes",
          "name": "_srcAddress",
          "type": "bytes"
        },
        {
          "indexed": true,
          "internalType": "address",
          "name": "_toAddress",
          "type": "address"
        },
        {
          "indexed": false,
          "internalType": "uint256[]",
          "name": "_tokenIds",
          "type": "uint256[]"
        },
        {
          "indexed": false,
          "internalType": "uint256[]",
          "name": "_amounts",
          "type": "uint256[]"
        }
      ],
      "name": "ReceiveBatchFromChain",
      "type": "event"
    },
    {
      "anonymous": false,
      "inputs": [
        {
          "indexed": true,
          "internalType": "uint16",
          "name": "_srcChainId",
          "type": "uint16"
        },
        {
          "indexed": true,
          "internalType": "bytes",
          "name": "_srcAddress",
          "type": "bytes"
        },
        {
          "indexed": true,
          "internalType": "address",
          "name": "_toAddress",
          "type": "address"
        },
        {
          "indexed": false,
          "internalType": "uint256",
          "name": "_tokenId",
          "type": "uint256"
        },
        {
          "indexed": false,
          "internalType": "uint256",
          "name": "_amount",
          "type": "uint256"
        }
      ],
      "name": "ReceiveFromChain",
      "type": "event"
    },
    {
      "anonymous": false,
      "inputs": [
        {
          "indexed": false,
          "internalType": "uint16",
          "name": "_srcChainId",
          "type": "uint16"
        },
        {
          "indexed": false,
          "internalType": "bytes",
          "name": "_srcAddress",
          "type": "bytes"
        },
        {
          "indexed": false,
          "internalType": "uint64",
          "name": "_nonce",
          "type": "uint64"
        },
        {
          "indexed": false,
          "internalType": "bytes32",
          "name": "_payloadHash",
          "type": "bytes32"
        }
      ],
      "name": "RetryMessageSuccess",
      "type": "event"
    },
    {
      "anonymous": false,
      "inputs": [
        {
          "indexed": true,
          "internalType": "uint16",
          "name": "_dstChainId",
          "type": "uint16"
        },
        {
          "indexed": true,
          "internalType": "address",
          "name": "_from",
          "type": "address"
        },
        {
          "indexed": true,
          "internalType": "bytes",
          "name": "_toAddress",
          "type": "bytes"
        },
        {
          "indexed": false,
          "internalType": "uint256[]",
          "name": "_tokenIds",
          "type": "uint256[]"
        },
        {
          "indexed": false,
          "internalType": "uint256[]",
          "name": "_amounts",
          "type": "uint256[]"
        }
      ],
      "name": "SendBatchToChain",
      "type": "event"
    },
    {
      "anonymous": false,
      "inputs": [
        {
          "indexed": true,
          "internalType": "uint16",
          "name": "_dstChainId",
          "type": "uint16"
        },
        {
          "indexed": true,
          "internalType": "address",
          "name": "_from",
          "type": "address"
        },
        {
          "indexed": true,
          "internalType": "bytes",
          "name": "_toAddress",
          "type": "bytes"
        },
        {
          "indexed": false,
          "internalType": "uint256",
          "name": "_tokenId",
          "type": "uint256"
        },
        {
          "indexed": false,
          "internalType": "uint256",
          "name": "_amount",
          "type": "uint256"
        }
      ],
      "name": "SendToChain",
      "type": "event"
    },
    {
      "anonymous": false,
      "inputs": [
        {
          "indexed": false,
          "internalType": "uint16",
          "name": "_dstChainId",
          "type": "uint16"
        },
        {
          "indexed": false,
          "internalType": "uint16",
          "name": "_type",
          "type": "uint16"
        },
        {
          "indexed": false,
          "internalType": "uint256",
          "name": "_minDstGas",
          "type": "uint256"
        }
      ],
      "name": "SetMinDstGas",
      "type": "event"
    },
    {
      "anonymous": false,
      "inputs": [
        {
          "indexed": false,
          "internalType": "address",
          "name": "precrime",
          "type": "address"
        }
      ],
      "name": "SetPrecrime",
      "type": "event"
    },
    {
      "anonymous": false,
      "inputs": [
        {
          "indexed": false,
          "internalType": "uint16",
          "name": "_remoteChainId",
          "type": "uint16"
        },
        {
          "indexed": false,
          "internalType": "bytes",
          "name": "_path",
          "type": "bytes"
        }
      ],
      "name": "SetTrustedRemote",
      "type": "event"
    },
    {
      "anonymous": false,
      "inputs": [
        {
          "indexed": false,
          "internalType": "uint16",
          "name": "_remoteChainId",
          "type": "uint16"
        },
        {
          "indexed": false,
          "internalType": "bytes",
          "name": "_remoteAddress",
          "type": "bytes"
        }
      ],
      "name": "SetTrustedRemoteAddress",
      "type": "event"
    },
    {
      "anonymous": false,
      "inputs": [
        {
          "indexed": false,
          "internalType": "bool",
          "name": "_useCustomAdapterParams",
          "type": "bool"
        }
      ],
      "name": "SetUseCustomAdapterParams",
      "type": "event"
    },
    {
      "anonymous": false,
      "inputs": [
        {
          "indexed": true,
          "internalType": "address",
          "name": "operator",
          "type": "address"
        },
        {
          "indexed": true,
          "internalType": "address",
          "name": "from",
          "type": "address"
        },
        {
          "indexed": true,
          "internalType": "address",
          "name": "to",
          "type": "address"
        },
        {
          "indexed": false,
          "internalType": "uint256[]",
          "name": "ids",
          "type": "uint256[]"
        },
        {
          "indexed": false,
          "internalType": "uint256[]",
          "name": "values",
          "type": "uint256[]"
        }
      ],
      "name": "TransferBatch",
      "type": "event"
    },
    {
      "anonymous": false,
      "inputs": [
        {
          "indexed": true,
          "internalType": "address",
          "name": "operator",
          "type": "address"
        },
        {
          "indexed": true,
          "internalType": "address",
          "name": "from",
          "type": "address"
        },
        {
          "indexed": true,
          "internalType": "address",
          "name": "to",
          "type": "address"
        },
        {
          "indexed": false,
          "internalType": "uint256",
          "name": "id",
          "type": "uint256"
        },
        {
          "indexed": false,
          "internalType": "uint256",
          "name": "value",
          "type": "uint256"
        }
      ],
      "name": "TransferSingle",
      "type": "event"
    },
    {
      "anonymous": false,
      "inputs": [
        {
          "indexed": false,
          "internalType": "string",
          "name": "value",
          "type": "string"
        },
        {
          "indexed": true,
          "internalType": "uint256",
          "name": "id",
          "type": "uint256"
        }
      ],
      "name": "URI",
      "type": "event"
    },
    {
      "inputs": [],
      "name": "DEFAULT_PAYLOAD_SIZE_LIMIT",
      "outputs": [
        {
          "internalType": "uint256",
          "name": "",
          "type": "uint256"
        }
      ],
      "stateMutability": "view",
      "type": "function"
    },
    {
      "inputs": [],
      "name": "FUNCTION_TYPE_SEND",
      "outputs": [
        {
          "internalType": "uint16",
          "name": "",
          "type": "uint16"
        }
      ],
      "stateMutability": "view",
      "type": "function"
    },
    {
      "inputs": [],
      "name": "FUNCTION_TYPE_SEND_BATCH",
      "outputs": [
        {
          "internalType": "uint16",
          "name": "",
          "type": "uint16"
        }
      ],
      "stateMutability": "view",
      "type": "function"
    },
    {
      "inputs": [],
      "name": "MAX_SUPPLY",
      "outputs": [
        {
          "internalType": "uint256",
          "name": "",
          "type": "uint256"
        }
      ],
      "stateMutability": "view",
      "type": "function"
    },
    {
      "inputs": [],
      "name": "NO_EXTRA_GAS",
      "outputs": [
        {
          "internalType": "uint256",
          "name": "",
          "type": "uint256"
        }
      ],
      "stateMutability": "view",
      "type": "function"
    },
    {
      "inputs": [
        {
          "internalType": "address",
          "name": "account",
          "type": "address"
        },
        {
          "internalType": "uint256",
          "name": "id",
          "type": "uint256"
        }
      ],
      "name": "balanceOf",
      "outputs": [
        {
          "internalType": "uint256",
          "name": "",
          "type": "uint256"
        }
      ],
      "stateMutability": "view",
      "type": "function"
    },
    {
      "inputs": [
        {
          "internalType": "address[]",
          "name": "accounts",
          "type": "address[]"
        },
        {
          "internalType": "uint256[]",
          "name": "ids",
          "type": "uint256[]"
        }
      ],
      "name": "balanceOfBatch",
      "outputs": [
        {
          "internalType": "uint256[]",
          "name": "",
          "type": "uint256[]"
        }
      ],
      "stateMutability": "view",
      "type": "function"
    },
    {
      "inputs": [
        {
          "internalType": "address",
          "name": "_to",
          "type": "address"
        }
      ],
      "name": "batchMint",
      "outputs": [],
      "stateMutability": "nonpayable",
      "type": "function"
    },
    {
      "inputs": [
        {
          "internalType": "address",
          "name": "account",
          "type": "address"
        },
        {
          "internalType": "uint256",
          "name": "id",
          "type": "uint256"
        },
        {
          "internalType": "uint256",
          "name": "value",
          "type": "uint256"
        }
      ],
      "name": "burn",
      "outputs": [],
      "stateMutability": "nonpayable",
      "type": "function"
    },
    {
      "inputs": [
        {
          "internalType": "address",
          "name": "account",
          "type": "address"
        },
        {
          "internalType": "uint256[]",
          "name": "ids",
          "type": "uint256[]"
        },
        {
          "internalType": "uint256[]",
          "name": "values",
          "type": "uint256[]"
        }
      ],
      "name": "burnBatch",
      "outputs": [],
      "stateMutability": "nonpayable",
      "type": "function"
    },
    {
      "inputs": [
        {
          "internalType": "uint16",
          "name": "_dstChainId",
          "type": "uint16"
        },
        {
          "internalType": "bytes",
          "name": "_toAddress",
          "type": "bytes"
        },
        {
          "internalType": "uint256[]",
          "name": "_tokenIds",
          "type": "uint256[]"
        },
        {
          "internalType": "uint256[]",
          "name": "_amounts",
          "type": "uint256[]"
        },
        {
          "internalType": "bool",
          "name": "_useZro",
          "type": "bool"
        },
        {
          "internalType": "bytes",
          "name": "_adapterParams",
          "type": "bytes"
        }
      ],
      "name": "estimateSendBatchFee",
      "outputs": [
        {
          "internalType": "uint256",
          "name": "nativeFee",
          "type": "uint256"
        },
        {
          "internalType": "uint256",
          "name": "zroFee",
          "type": "uint256"
        }
      ],
      "stateMutability": "view",
      "type": "function"
    },
    {
      "inputs": [
        {
          "internalType": "uint16",
          "name": "_dstChainId",
          "type": "uint16"
        },
        {
          "internalType": "bytes",
          "name": "_toAddress",
          "type": "bytes"
        },
        {
          "internalType": "uint256",
          "name": "_tokenId",
          "type": "uint256"
        },
        {
          "internalType": "uint256",
          "name": "_amount",
          "type": "uint256"
        },
        {
          "internalType": "bool",
          "name": "_useZro",
          "type": "bool"
        },
        {
          "internalType": "bytes",
          "name": "_adapterParams",
          "type": "bytes"
        }
      ],
      "name": "estimateSendFee",
      "outputs": [
        {
          "internalType": "uint256",
          "name": "nativeFee",
          "type": "uint256"
        },
        {
          "internalType": "uint256",
          "name": "zroFee",
          "type": "uint256"
        }
      ],
      "stateMutability": "view",
      "type": "function"
    },
    {
      "inputs": [
        {
          "internalType": "uint16",
          "name": "",
          "type": "uint16"
        },
        {
          "internalType": "bytes",
          "name": "",
          "type": "bytes"
        },
        {
          "internalType": "uint64",
          "name": "",
          "type": "uint64"
        }
      ],
      "name": "failedMessages",
      "outputs": [
        {
          "internalType": "bytes32",
          "name": "",
          "type": "bytes32"
        }
      ],
      "stateMutability": "view",
      "type": "function"
    },
    {
      "inputs": [
        {
          "internalType": "uint16",
          "name": "_srcChainId",
          "type": "uint16"
        },
        {
          "internalType": "bytes",
          "name": "_srcAddress",
          "type": "bytes"
        }
      ],
      "name": "forceResumeReceive",
      "outputs": [],
      "stateMutability": "nonpayable",
      "type": "function"
    },
    {
      "inputs": [
        {
          "internalType": "uint16",
          "name": "_version",
          "type": "uint16"
        },
        {
          "internalType": "uint16",
          "name": "_chainId",
          "type": "uint16"
        },
        {
          "internalType": "address",
          "name": "",
          "type": "address"
        },
        {
          "internalType": "uint256",
          "name": "_configType",
          "type": "uint256"
        }
      ],
      "name": "getConfig",
      "outputs": [
        {
          "internalType": "bytes",
          "name": "",
          "type": "bytes"
        }
      ],
      "stateMutability": "view",
      "type": "function"
    },
    {
      "inputs": [
        {
          "internalType": "uint16",
          "name": "_remoteChainId",
          "type": "uint16"
        }
      ],
      "name": "getTrustedRemoteAddress",
      "outputs": [
        {
          "internalType": "bytes",
          "name": "",
          "type": "bytes"
        }
      ],
      "stateMutability": "view",
      "type": "function"
    },
    {
      "inputs": [
        {
          "internalType": "address",
          "name": "account",
          "type": "address"
        },
        {
          "internalType": "address",
          "name": "operator",
          "type": "address"
        }
      ],
      "name": "isApprovedForAll",
      "outputs": [
        {
          "internalType": "bool",
          "name": "",
          "type": "bool"
        }
      ],
      "stateMutability": "view",
      "type": "function"
    },
    {
      "inputs": [
        {
          "internalType": "uint16",
          "name": "_srcChainId",
          "type": "uint16"
        },
        {
          "internalType": "bytes",
          "name": "_srcAddress",
          "type": "bytes"
        }
      ],
      "name": "isTrustedRemote",
      "outputs": [
        {
          "internalType": "bool",
          "name": "",
          "type": "bool"
        }
      ],
      "stateMutability": "view",
      "type": "function"
    },
    {
      "inputs": [],
      "name": "lzEndpoint",
      "outputs": [
        {
          "internalType": "contract ILayerZeroEndpoint",
          "name": "",
          "type": "address"
        }
      ],
      "stateMutability": "view",
      "type": "function"
    },
    {
      "inputs": [
        {
          "internalType": "uint16",
          "name": "_srcChainId",
          "type": "uint16"
        },
        {
          "internalType": "bytes",
          "name": "_srcAddress",
          "type": "bytes"
        },
        {
          "internalType": "uint64",
          "name": "_nonce",
          "type": "uint64"
        },
        {
          "internalType": "bytes",
          "name": "_payload",
          "type": "bytes"
        }
      ],
      "name": "lzReceive",
      "outputs": [],
      "stateMutability": "nonpayable",
      "type": "function"
    },
    {
      "inputs": [
        {
          "internalType": "uint16",
          "name": "",
          "type": "uint16"
        },
        {
          "internalType": "uint16",
          "name": "",
          "type": "uint16"
        }
      ],
      "name": "minDstGasLookup",
      "outputs": [
        {
          "internalType": "uint256",
          "name": "",
          "type": "uint256"
        }
      ],
      "stateMutability": "view",
      "type": "function"
    },
    {
      "inputs": [
        {
          "internalType": "address",
          "name": "from",
          "type": "address"
        },
        {
          "internalType": "address[]",
          "name": "tos",
          "type": "address[]"
        },
        {
          "internalType": "uint256[]",
          "name": "ids",
          "type": "uint256[]"
        },
        {
          "internalType": "uint256[]",
          "name": "amounts",
          "type": "uint256[]"
        },
        {
          "internalType": "bytes",
          "name": "data",
          "type": "bytes"
        }
      ],
      "name": "multiBatchTransferFrom",
      "outputs": [],
      "stateMutability": "nonpayable",
      "type": "function"
    },
    {
      "inputs": [
        {
          "internalType": "address",
          "name": "from",
          "type": "address"
        },
        {
          "internalType": "address[]",
          "name": "tos",
          "type": "address[]"
        },
        {
          "internalType": "uint256",
          "name": "id",
          "type": "uint256"
        },
        {
          "internalType": "uint256",
          "name": "amount",
          "type": "uint256"
        },
        {
          "internalType": "bytes",
          "name": "data",
          "type": "bytes"
        }
      ],
      "name": "multiTransferFrom",
      "outputs": [],
      "stateMutability": "nonpayable",
      "type": "function"
    },
    {
      "inputs": [],
      "name": "name",
      "outputs": [
        {
          "internalType": "string",
          "name": "",
          "type": "string"
        }
      ],
      "stateMutability": "view",
      "type": "function"
    },
    {
      "inputs": [
        {
          "internalType": "uint16",
          "name": "_srcChainId",
          "type": "uint16"
        },
        {
          "internalType": "bytes",
          "name": "_srcAddress",
          "type": "bytes"
        },
        {
          "internalType": "uint64",
          "name": "_nonce",
          "type": "uint64"
        },
        {
          "internalType": "bytes",
          "name": "_payload",
          "type": "bytes"
        }
      ],
      "name": "nonblockingLzReceive",
      "outputs": [],
      "stateMutability": "nonpayable",
      "type": "function"
    },
    {
      "inputs": [],
      "name": "owner",
      "outputs": [
        {
          "internalType": "address",
          "name": "",
          "type": "address"
        }
      ],
      "stateMutability": "view",
      "type": "function"
    },
    {
      "inputs": [
        {
          "internalType": "uint16",
          "name": "",
          "type": "uint16"
        }
      ],
      "name": "payloadSizeLimitLookup",
      "outputs": [
        {
          "internalType": "uint256",
          "name": "",
          "type": "uint256"
        }
      ],
      "stateMutability": "view",
      "type": "function"
    },
    {
      "inputs": [],
      "name": "precrime",
      "outputs": [
        {
          "internalType": "address",
          "name": "",
          "type": "address"
        }
      ],
      "stateMutability": "view",
      "type": "function"
    },
    {
      "inputs": [],
      "name": "renounceOwnership",
      "outputs": [],
      "stateMutability": "nonpayable",
      "type": "function"
    },
    {
      "inputs": [
        {
          "internalType": "uint16",
          "name": "_srcChainId",
          "type": "uint16"
        },
        {
          "internalType": "bytes",
          "name": "_srcAddress",
          "type": "bytes"
        },
        {
          "internalType": "uint64",
          "name": "_nonce",
          "type": "uint64"
        },
        {
          "internalType": "bytes",
          "name": "_payload",
          "type": "bytes"
        }
      ],
      "name": "retryMessage",
      "outputs": [],
      "stateMutability": "payable",
      "type": "function"
    },
    {
      "inputs": [
        {
          "internalType": "uint256",
          "name": "tokenId",
          "type": "uint256"
        },
        {
          "internalType": "uint256",
          "name": "salePrice",
          "type": "uint256"
        }
      ],
      "name": "royaltyInfo",
      "outputs": [
        {
          "internalType": "address",
          "name": "",
          "type": "address"
        },
        {
          "internalType": "uint256",
          "name": "",
          "type": "uint256"
        }
      ],
      "stateMutability": "view",
      "type": "function"
    },
    {
      "inputs": [
        {
          "internalType": "address",
          "name": "from",
          "type": "address"
        },
        {
          "internalType": "address",
          "name": "to",
          "type": "address"
        },
        {
          "internalType": "uint256[]",
          "name": "ids",
          "type": "uint256[]"
        },
        {
          "internalType": "uint256[]",
          "name": "amounts",
          "type": "uint256[]"
        },
        {
          "internalType": "bytes",
          "name": "data",
          "type": "bytes"
        }
      ],
      "name": "safeBatchTransferFrom",
      "outputs": [],
      "stateMutability": "nonpayable",
      "type": "function"
    },
    {
      "inputs": [
        {
          "internalType": "address",
          "name": "from",
          "type": "address"
        },
        {
          "internalType": "address",
          "name": "to",
          "type": "address"
        },
        {
          "internalType": "uint256",
          "name": "id",
          "type": "uint256"
        },
        {
          "internalType": "uint256",
          "name": "amount",
          "type": "uint256"
        },
        {
          "internalType": "bytes",
          "name": "data",
          "type": "bytes"
        }
      ],
      "name": "safeTransferFrom",
      "outputs": [],
      "stateMutability": "nonpayable",
      "type": "function"
    },
    {
      "inputs": [
        {
          "internalType": "address",
          "name": "_from",
          "type": "address"
        },
        {
          "internalType": "uint16",
          "name": "_dstChainId",
          "type": "uint16"
        },
        {
          "internalType": "bytes",
          "name": "_toAddress",
          "type": "bytes"
        },
        {
          "internalType": "uint256[]",
          "name": "_tokenIds",
          "type": "uint256[]"
        },
        {
          "internalType": "uint256[]",
          "name": "_amounts",
          "type": "uint256[]"
        },
        {
          "internalType": "address payable",
          "name": "_refundAddress",
          "type": "address"
        },
        {
          "internalType": "address",
          "name": "_zroPaymentAddress",
          "type": "address"
        },
        {
          "internalType": "bytes",
          "name": "_adapterParams",
          "type": "bytes"
        }
      ],
      "name": "sendBatchFrom",
      "outputs": [],
      "stateMutability": "payable",
      "type": "function"
    },
    {
      "inputs": [
        {
          "internalType": "address",
          "name": "_from",
          "type": "address"
        },
        {
          "internalType": "uint16",
          "name": "_dstChainId",
          "type": "uint16"
        },
        {
          "internalType": "bytes",
          "name": "_toAddress",
          "type": "bytes"
        },
        {
          "internalType": "uint256",
          "name": "_tokenId",
          "type": "uint256"
        },
        {
          "internalType": "uint256",
          "name": "_amount",
          "type": "uint256"
        },
        {
          "internalType": "address payable",
          "name": "_refundAddress",
          "type": "address"
        },
        {
          "internalType": "address",
          "name": "_zroPaymentAddress",
          "type": "address"
        },
        {
          "internalType": "bytes",
          "name": "_adapterParams",
          "type": "bytes"
        }
      ],
      "name": "sendFrom",
      "outputs": [],
      "stateMutability": "payable",
      "type": "function"
    },
    {
      "inputs": [
        {
          "internalType": "address",
          "name": "operator",
          "type": "address"
        },
        {
          "internalType": "bool",
          "name": "approved",
          "type": "bool"
        }
      ],
      "name": "setApprovalForAll",
      "outputs": [],
      "stateMutability": "nonpayable",
      "type": "function"
    },
    {
      "inputs": [
        {
          "internalType": "uint16",
          "name": "_version",
          "type": "uint16"
        },
        {
          "internalType": "uint16",
          "name": "_chainId",
          "type": "uint16"
        },
        {
          "internalType": "uint256",
          "name": "_configType",
          "type": "uint256"
        },
        {
          "internalType": "bytes",
          "name": "_config",
          "type": "bytes"
        }
      ],
      "name": "setConfig",
      "outputs": [],
      "stateMutability": "nonpayable",
      "type": "function"
    },
    {
      "inputs": [
        {
          "internalType": "address",
          "name": "receiver",
          "type": "address"
        },
        {
          "internalType": "uint96",
          "name": "feeNumerator",
          "type": "uint96"
        }
      ],
      "name": "setDefaultRoyalty",
      "outputs": [],
      "stateMutability": "nonpayable",
      "type": "function"
    },
    {
      "inputs": [
        {
          "internalType": "uint16",
          "name": "_dstChainId",
          "type": "uint16"
        },
        {
          "internalType": "uint16",
          "name": "_packetType",
          "type": "uint16"
        },
        {
          "internalType": "uint256",
          "name": "_minGas",
          "type": "uint256"
        }
      ],
      "name": "setMinDstGas",
      "outputs": [],
      "stateMutability": "nonpayable",
      "type": "function"
    },
    {
      "inputs": [
        {
          "internalType": "uint16",
          "name": "_dstChainId",
          "type": "uint16"
        },
        {
          "internalType": "uint256",
          "name": "_size",
          "type": "uint256"
        }
      ],
      "name": "setPayloadSizeLimit",
      "outputs": [],
      "stateMutability": "nonpayable",
      "type": "function"
    },
    {
      "inputs": [
        {
          "internalType": "address",
          "name": "_precrime",
          "type": "address"
        }
      ],
      "name": "setPrecrime",
      "outputs": [],
      "stateMutability": "nonpayable",
      "type": "function"
    },
    {
      "inputs": [
        {
          "internalType": "uint16",
          "name": "_version",
          "type": "uint16"
        }
      ],
      "name": "setReceiveVersion",
      "outputs": [],
      "stateMutability": "nonpayable",
      "type": "function"
    },
    {
      "inputs": [
        {
          "internalType": "uint16",
          "name": "_version",
          "type": "uint16"
        }
      ],
      "name": "setSendVersion",
      "outputs": [],
      "stateMutability": "nonpayable",
      "type": "function"
    },
    {
      "inputs": [
        {
          "internalType": "uint256",
          "name": "tokenId",
          "type": "uint256"
        },
        {
          "internalType": "address",
          "name": "receiver",
          "type": "address"
        },
        {
          "internalType": "uint96",
          "name": "feeNumerator",
          "type": "uint96"
        }
      ],
      "name": "setTokenRoyalty",
      "outputs": [],
      "stateMutability": "nonpayable",
      "type": "function"
    },
    {
      "inputs": [
        {
          "internalType": "uint16",
          "name": "_remoteChainId",
          "type": "uint16"
        },
        {
          "internalType": "bytes",
          "name": "_path",
          "type": "bytes"
        }
      ],
      "name": "setTrustedRemote",
      "outputs": [],
      "stateMutability": "nonpayable",
      "type": "function"
    },
    {
      "inputs": [
        {
          "internalType": "uint16",
          "name": "_remoteChainId",
          "type": "uint16"
        },
        {
          "internalType": "bytes",
          "name": "_remoteAddress",
          "type": "bytes"
        }
      ],
      "name": "setTrustedRemoteAddress",
      "outputs": [],
      "stateMutability": "nonpayable",
      "type": "function"
    },
    {
      "inputs": [
        {
          "internalType": "string",
          "name": "_uri",
          "type": "string"
        }
      ],
      "name": "setURI",
      "outputs": [],
      "stateMutability": "nonpayable",
      "type": "function"
    },
    {
      "inputs": [
        {
          "internalType": "bool",
          "name": "_useCustomAdapterParams",
          "type": "bool"
        }
      ],
      "name": "setUseCustomAdapterParams",
      "outputs": [],
      "stateMutability": "nonpayable",
      "type": "function"
    },
    {
      "inputs": [
        {
          "internalType": "bytes4",
          "name": "interfaceId",
          "type": "bytes4"
        }
      ],
      "name": "supportsInterface",
      "outputs": [
        {
          "internalType": "bool",
          "name": "",
          "type": "bool"
        }
      ],
      "stateMutability": "view",
      "type": "function"
    },
    {
      "inputs": [],
      "name": "symbol",
      "outputs": [
        {
          "internalType": "string",
          "name": "",
          "type": "string"
        }
      ],
      "stateMutability": "view",
      "type": "function"
    },
    {
      "inputs": [
        {
          "internalType": "address",
          "name": "newOwner",
          "type": "address"
        }
      ],
      "name": "transferOwnership",
      "outputs": [],
      "stateMutability": "nonpayable",
      "type": "function"
    },
    {
      "inputs": [
        {
          "internalType": "uint16",
          "name": "",
          "type": "uint16"
        }
      ],
      "name": "trustedRemoteLookup",
      "outputs": [
        {
          "internalType": "bytes",
          "name": "",
          "type": "bytes"
        }
      ],
      "stateMutability": "view",
      "type": "function"
    },
    {
      "inputs": [
        {
          "internalType": "uint256",
          "name": "id",
          "type": "uint256"
        }
      ],
      "name": "uri",
      "outputs": [
        {
          "internalType": "string",
          "name": "",
          "type": "string"
        }
      ],
      "stateMutability": "view",
      "type": "function"
    },
    {
      "inputs": [],
      "name": "useCustomAdapterParams",
      "outputs": [
        {
          "internalType": "bool",
          "name": "",
          "type": "bool"
        }
      ],
      "stateMutability": "view",
      "type": "function"
    },
    {
      "inputs": [],
      "name": "withdraw",
      "outputs": [],
      "stateMutability": "nonpayable",
      "type": "function"
    },
    {
      "inputs": [
        {
          "internalType": "contract IERC20",
          "name": "token",
          "type": "address"
        }
      ],
      "name": "withdrawTokens",
      "outputs": [],
      "stateMutability": "nonpayable",
      "type": "function"
    }
  ],
  "transactionHash": "0x848bfaaea257d1c89a018187e7e1aba4bdaeab98f527cee8769471f72ad9396f",
  "args": [
    "ipfs://bafybeifqaqm6iy6o6lhjql2wks24p4i3ad2ejo4esh7zug3akqvxkno7hm/",
    700,
    "0x83c73Da98cf733B03315aFa8758834b36a195b87"
  ],
  "numDeployments": 1,
  "solcInputHash": "36feb622232dbb746a2b6c23844c2236",
  "bytecode": "0x6000600c5560e0604052601960a09081527f41726d6f7572583a205375727669766f727320284245414d290000000000000060c052600e9062000043908262000300565b5060408051808201909152600381526241585360e81b6020820152600f906200006d908262000300565b503480156200007b57600080fd5b506040516200595a3803806200595a8339810160408190526200009e9162000401565b828181818080620000af33620000f4565b6001600160a01b031660805250620000c990508162000144565b505050620000e7620000e0620000f060201b60201c565b8362000156565b505050620004fb565b3390565b600080546001600160a01b038381166001600160a01b0319831681178455604051919092169283917f8be0079c531659141344cd1fd0a4f28419497f9722a3daafe3b4186f6b6457e09190a35050565b600962000152828262000300565b5050565b6127106001600160601b0382161115620001ca5760405162461bcd60e51b815260206004820152602a60248201527f455243323938313a20726f79616c7479206665652077696c6c206578636565646044820152692073616c65507269636560b01b60648201526084015b60405180910390fd5b6001600160a01b038216620002225760405162461bcd60e51b815260206004820152601960248201527f455243323938313a20696e76616c6964207265636569766572000000000000006044820152606401620001c1565b604080518082019091526001600160a01b039092168083526001600160601b039091166020909201829052600160a01b90910217600a55565b634e487b7160e01b600052604160045260246000fd5b600181811c908216806200028657607f821691505b602082108103620002a757634e487b7160e01b600052602260045260246000fd5b50919050565b601f821115620002fb57600081815260208120601f850160051c81016020861015620002d65750805b601f850160051c820191505b81811015620002f757828155600101620002e2565b5050505b505050565b81516001600160401b038111156200031c576200031c6200025b565b62000334816200032d845462000271565b84620002ad565b602080601f8311600181146200036c5760008415620003535750858301515b600019600386901b1c1916600185901b178555620002f7565b600085815260208120601f198616915b828110156200039d578886015182559484019460019091019084016200037c565b5085821015620003bc5787850151600019600388901b60f8161c191681555b5050505050600190811b01905550565b80516001600160601b0381168114620003e457600080fd5b919050565b80516001600160a01b0381168114620003e457600080fd5b6000806000606084860312156200041757600080fd5b83516001600160401b03808211156200042f57600080fd5b818601915086601f8301126200044457600080fd5b8151818111156200045957620004596200025b565b604051601f8201601f19908116603f011681019083821181831017156200048457620004846200025b565b81604052828152602093508984848701011115620004a157600080fd5b600091505b82821015620004c55784820184015181830185015290830190620004a6565b6000848483010152809750505050620004e0818701620003cc565b93505050620004f260408501620003e9565b90509250925092565b60805161540b6200054f6000396000818161093b01528181610b0c01528181610eb4015281816110a30152818161139501528181611ac601528181611bcf015281816120970152613761015261540b6000f3fe6080604052600436106103695760003560e01c806366ad5c8a116101c6578063b353aaa7116100f7578063eab45d9c11610095578063f242432a1161006f578063f242432a14610a89578063f2fde38b14610aa9578063f5298aca14610ac9578063f5ecbdbc14610ae957600080fd5b8063eab45d9c14610a2f578063eb8d72b714610a4f578063ed629c5c14610a6f57600080fd5b8063cbed8b9c116100d1578063cbed8b9c14610993578063d1deba1f146109b3578063df2a5b3b146109c6578063e985e9c5146109e657600080fd5b8063b353aaa714610929578063baf3292d1461095d578063c44618341461097d57600080fd5b8063950c8a7411610164578063a22cb4651161013e578063a22cb465146108b4578063a6c3d165146108d4578063af3fb21c146108f4578063b25356631461090957600080fd5b8063950c8a741461085f57806395d89b411461087f5780639f38369a1461089457600080fd5b80637533d788116101a05780637533d788146107a05780638608e5f8146107c05780638cfd8f5c146107f55780638da5cb5b1461082d57600080fd5b806366ad5c8a1461074b5780636b20c4541461076b578063715018a61461078b57600080fd5b806332cb6b0c116102a05780634ab4e6871161023e57806357884c241161021857806357884c241461069c5780635944c753146106bc5780635b8c41e6146106dc5780635e70be341461072b57600080fd5b80634ab4e687146106495780634db8226a1461065c5780634e1273f41461066f57600080fd5b80633f1f4fa41161027a5780633f1f4fa4146105c757806342d65a8d146105f4578063447705151461061457806349df728c1461062957600080fd5b806332cb6b0c1461057c5780633ccfd60b146105925780633d8b38f6146105a757600080fd5b80630df374831161030d578063149e3e1f116102e7578063149e3e1f146104d55780631863562b146104fd5780632a55205a1461051d5780632eb2c2d61461055c57600080fd5b80630df37483146104755780630e89341c1461049557806310ddb137146104b557600080fd5b806302fe53051161034957806302fe5305146103f357806304634d8d1461041357806306fdde031461043357806307e0db171461045557600080fd5b80621d35671461036e578062fdd58e1461039057806301ffc9a7146103c3575b600080fd5b34801561037a57600080fd5b5061038e610389366004613af5565b610b09565b005b34801561039c57600080fd5b506103b06103ab366004613ba8565b610d3a565b6040519081526020015b60405180910390f35b3480156103cf57600080fd5b506103e36103de366004613bea565b610dd0565b60405190151581526020016103ba565b3480156103ff57600080fd5b5061038e61040e366004613cb6565b610ddb565b34801561041f57600080fd5b5061038e61042e366004613d1d565b610def565b34801561043f57600080fd5b50610448610e05565b6040516103ba9190613da2565b34801561046157600080fd5b5061038e610470366004613db5565b610e93565b34801561048157600080fd5b5061038e610490366004613dd0565b610f1c565b3480156104a157600080fd5b506104486104b0366004613dec565b610f3b565b3480156104c157600080fd5b5061038e6104d0366004613db5565b611082565b3480156104e157600080fd5b506104ea600281565b60405161ffff90911681526020016103ba565b34801561050957600080fd5b5061038e610518366004613e05565b6110da565b34801561052957600080fd5b5061053d610538366004613e22565b611180565b604080516001600160a01b0390931683526020830191909152016103ba565b34801561056857600080fd5b5061038e610577366004613ef8565b61122e565b34801561058857600080fd5b506103b0610bb681565b34801561059e57600080fd5b5061038e611273565b3480156105b357600080fd5b506103e36105c2366004613fa5565b6112aa565b3480156105d357600080fd5b506103b06105e2366004613db5565b60036020526000908152604090205481565b34801561060057600080fd5b5061038e61060f366004613fa5565b611376565b34801561062057600080fd5b506103b0600081565b34801561063557600080fd5b5061038e610644366004613e05565b6113fc565b61038e610657366004613ff7565b6114e8565b61038e61066a3660046140e6565b611502565b34801561067b57600080fd5b5061068f61068a3660046141fb565b611522565b6040516103ba9190614299565b3480156106a857600080fd5b5061038e6106b73660046142ac565b61164b565b3480156106c857600080fd5b5061038e6106d736600461430d565b6116cd565b3480156106e857600080fd5b506103b06106f736600461434b565b6005602090815260009384526040808520845180860184018051928152908401958401959095209452929052825290205481565b34801561073757600080fd5b5061038e61074636600461439f565b6116e0565b34801561075757600080fd5b5061038e610766366004613af5565b61175a565b34801561077757600080fd5b5061038e61078636600461440e565b61182e565b34801561079757600080fd5b5061038e611871565b3480156107ac57600080fd5b506104486107bb366004613db5565b611885565b3480156107cc57600080fd5b506107e06107db36600461449c565b61189e565b604080519283526020830191909152016103ba565b34801561080157600080fd5b506103b0610810366004614536565b600260209081526000928352604080842090915290825290205481565b34801561083957600080fd5b506000546001600160a01b03165b6040516001600160a01b0390911681526020016103ba565b34801561086b57600080fd5b50600454610847906001600160a01b031681565b34801561088b57600080fd5b506104486118ce565b3480156108a057600080fd5b506104486108af366004613db5565b6118db565b3480156108c057600080fd5b5061038e6108cf366004614560565b6119f1565b3480156108e057600080fd5b5061038e6108ef366004613fa5565b6119fc565b34801561090057600080fd5b506104ea600181565b34801561091557600080fd5b506107e0610924366004614599565b611a85565b34801561093557600080fd5b506108477f000000000000000000000000000000000000000000000000000000000000000081565b34801561096957600080fd5b5061038e610978366004613e05565b611b53565b34801561098957600080fd5b506103b061271081565b34801561099f57600080fd5b5061038e6109ae36600461464b565b611bb0565b61038e6109c1366004613af5565b611c45565b3480156109d257600080fd5b5061038e6109e13660046146b9565b611e5b565b3480156109f257600080fd5b506103e3610a013660046146f5565b6001600160a01b03918216600090815260086020908152604080832093909416825291909152205460ff1690565b348015610a3b57600080fd5b5061038e610a4a366004614723565b611ec5565b348015610a5b57600080fd5b5061038e610a6a366004613fa5565b611f0e565b348015610a7b57600080fd5b506006546103e39060ff1681565b348015610a9557600080fd5b5061038e610aa4366004614740565b611f68565b348015610ab557600080fd5b5061038e610ac4366004613e05565b611fad565b348015610ad557600080fd5b5061038e610ae43660046147a8565b612023565b348015610af557600080fd5b50610448610b043660046147dd565b612066565b337f00000000000000000000000000000000000000000000000000000000000000006001600160a01b031614610b865760405162461bcd60e51b815260206004820152601e60248201527f4c7a4170703a20696e76616c696420656e64706f696e742063616c6c6572000060448201526064015b60405180910390fd5b61ffff861660009081526001602052604081208054610ba49061482a565b80601f0160208091040260200160405190810160405280929190818152602001828054610bd09061482a565b8015610c1d5780601f10610bf257610100808354040283529160200191610c1d565b820191906000526020600020905b815481529060010190602001808311610c0057829003601f168201915b50505050509050805186869050148015610c38575060008151115b8015610c60575080516020820120604051610c569088908890614864565b6040518091039020145b610cbb5760405162461bcd60e51b815260206004820152602660248201527f4c7a4170703a20696e76616c696420736f757263652073656e64696e6720636f6044820152651b9d1c9858dd60d21b6064820152608401610b7d565b610d318787878080601f01602080910402602001604051908101604052809392919081815260200183838082843760009201919091525050604080516020601f8a018190048102820181019092528881528a93509150889088908190840183828082843760009201919091525061211792505050565b50505050505050565b60006001600160a01b038316610da55760405162461bcd60e51b815260206004820152602a60248201527f455243313135353a2061646472657373207a65726f206973206e6f742061207660448201526930b634b21037bbb732b960b11b6064820152608401610b7d565b5060008181526007602090815260408083206001600160a01b03861684529091529020545b92915050565b6000610dca82612190565b610de36121ad565b610dec81612207565b50565b610df76121ad565b610e018282612213565b5050565b600e8054610e129061482a565b80601f0160208091040260200160405190810160405280929190818152602001828054610e3e9061482a565b8015610e8b5780601f10610e6057610100808354040283529160200191610e8b565b820191906000526020600020905b815481529060010190602001808311610e6e57829003601f168201915b505050505081565b610e9b6121ad565b6040516307e0db1760e01b815261ffff821660048201527f00000000000000000000000000000000000000000000000000000000000000006001600160a01b0316906307e0db17906024015b600060405180830381600087803b158015610f0157600080fd5b505af1158015610f15573d6000803e3d6000fd5b5050505050565b610f246121ad565b61ffff909116600090815260036020526040902055565b6060610bb68210610f9f5760405162461bcd60e51b815260206004820152602860248201527f457874656e6465644f4e4654313135353a20546f6b656e20494420646f65736e60448201526709dd08195e1a5cdd60c21b6064820152608401610b7d565b6000828152600d602052604081208054610fb89061482a565b80601f0160208091040260200160405190810160405280929190818152602001828054610fe49061482a565b80156110315780601f1061100657610100808354040283529160200191611031565b820191906000526020600020905b81548152906001019060200180831161101457829003601f168201915b505050505090506000815111156110485792915050565b611051836122cd565b61105a84612361565b60405160200161106b929190614874565b604051602081830303815290604052915050919050565b61108a6121ad565b6040516310ddb13760e01b815261ffff821660048201527f00000000000000000000000000000000000000000000000000000000000000006001600160a01b0316906310ddb13790602401610ee7565b6110e26121ad565b610bb6600c54106111355760405162461bcd60e51b815260206004820152601a60248201527f436f6c6c656374696f6e2069732066756c6c79206d696e7465640000000000006044820152606401610b7d565b60005b610bb6600c5410801561114b575060fa81105b15610e015761116e82600c546001604051806020016040528060008152506123f3565b600c8054600190810190915501611138565b6000828152600b602090815260408083208151808301909252546001600160a01b038116808352600160a01b9091046001600160601b03169282019290925282916111f5575060408051808201909152600a546001600160a01b0381168252600160a01b90046001600160601b031660208201525b602081015160009061271090611214906001600160601b0316876148b9565b61121e91906148d0565b91519350909150505b9250929050565b6001600160a01b03851633148061124a575061124a8533610a01565b6112665760405162461bcd60e51b8152600401610b7d906148f2565b610f1585858585856124c6565b61127b6121ad565b6040514790339082156108fc029083906000818181858888f19350505050158015610e01573d6000803e3d6000fd5b61ffff8316600090815260016020526040812080548291906112cb9061482a565b80601f01602080910402602001604051908101604052809291908181526020018280546112f79061482a565b80156113445780601f1061131957610100808354040283529160200191611344565b820191906000526020600020905b81548152906001019060200180831161132757829003601f168201915b50505050509050838360405161135b929190614864565b60405180910390208180519060200120149150509392505050565b61137e6121ad565b6040516342d65a8d60e01b81526001600160a01b037f000000000000000000000000000000000000000000000000000000000000000016906342d65a8d906113ce90869086908690600401614969565b600060405180830381600087803b1580156113e857600080fd5b505af1158015610d31573d6000803e3d6000fd5b6114046121ad565b6040516370a0823160e01b81523060048201526000906001600160a01b038316906370a0823190602401602060405180830381865afa15801561144b573d6000803e3d6000fd5b505050506040513d601f19601f8201168201806040525081019061146f9190614987565b60405163a9059cbb60e01b8152336004820152602481018290529091506001600160a01b0383169063a9059cbb906044016020604051808303816000875af11580156114bf573d6000803e3d6000fd5b505050506040513d601f19601f820116820180604052508101906114e391906149a0565b505050565b6114f8888888888888888861265d565b5050505050505050565b6114f888888861151189612844565b61151a89612844565b88888861265d565b606081518351146115875760405162461bcd60e51b815260206004820152602960248201527f455243313135353a206163636f756e747320616e6420696473206c656e677468604482015268040dad2e6dac2e8c6d60bb1b6064820152608401610b7d565b600083516001600160401b038111156115a2576115a2613c07565b6040519080825280602002602001820160405280156115cb578160200160208202803683370190505b50905060005b8451811015611643576116168582815181106115ef576115ef6149bd565b6020026020010151858381518110611609576116096149bd565b6020026020010151610d3a565b828281518110611628576116286149bd565b602090810291909101015261163c816149d3565b90506115d1565b509392505050565b6001600160a01b03851633148061166757506116678533610a01565b6116835760405162461bcd60e51b8152600401610b7d906149ec565b60005b84518110156116c5576116b5868683815181106116a5576116a56149bd565b60200260200101518686866124c6565b6116be816149d3565b9050611686565b505050505050565b6116d56121ad565b6114e383838361288f565b6001600160a01b0385163314806116fc57506116fc8533610a01565b6117185760405162461bcd60e51b8152600401610b7d906149ec565b60005b84518110156116c55761174a8686838151811061173a5761173a6149bd565b602002602001015186868661295a565b611753816149d3565b905061171b565b3330146117b85760405162461bcd60e51b815260206004820152602660248201527f4e6f6e626c6f636b696e674c7a4170703a2063616c6c6572206d7573742062656044820152650204c7a4170760d41b6064820152608401610b7d565b6116c58686868080601f01602080910402602001604051908101604052809392919081815260200183838082843760009201919091525050604080516020601f890181900481028201810190925287815289935091508790879081908401838280828437600092019190915250612a7d92505050565b6001600160a01b03831633148061184a575061184a8333610a01565b6118665760405162461bcd60e51b8152600401610b7d906148f2565b6114e3838383612bca565b6118796121ad565b6118836000612d59565b565b60016020526000908152604090208054610e129061482a565b6000806118bf88886118af89612844565b6118b889612844565b8888611a85565b91509150965096945050505050565b600f8054610e129061482a565b61ffff81166000908152600160205260408120805460609291906118fe9061482a565b80601f016020809104026020016040519081016040528092919081815260200182805461192a9061482a565b80156119775780601f1061194c57610100808354040283529160200191611977565b820191906000526020600020905b81548152906001019060200180831161195a57829003601f168201915b5050505050905080516000036119cf5760405162461bcd60e51b815260206004820152601d60248201527f4c7a4170703a206e6f20747275737465642070617468207265636f72640000006044820152606401610b7d565b6119ea6000601483516119e29190614a49565b839190612da9565b9392505050565b610e01338383612eb6565b611a046121ad565b818130604051602001611a1993929190614a5c565b60408051601f1981840301815291815261ffff8516600090815260016020522090611a449082614ac8565b507f8c0400cfe2d1199b1a725c78960bcc2a344d869b80590d0f2bd005db15a572ce838383604051611a7893929190614969565b60405180910390a1505050565b6000806000878787604051602001611a9f93929190614b87565b60408051601f198184030181529082905263040a7bb160e41b825291506001600160a01b037f000000000000000000000000000000000000000000000000000000000000000016906340a7bb1090611b03908c90309086908b908b90600401614bca565b6040805180830381865afa158015611b1f573d6000803e3d6000fd5b505050506040513d601f19601f82011682018060405250810190611b439190614c1e565b9250925050965096945050505050565b611b5b6121ad565b600480546001600160a01b0319166001600160a01b0383169081179091556040519081527f5db758e995a17ec1ad84bdef7e8c3293a0bd6179bcce400dff5d4c3d87db726b906020015b60405180910390a150565b611bb86121ad565b6040516332fb62e760e21b81526001600160a01b037f0000000000000000000000000000000000000000000000000000000000000000169063cbed8b9c90611c0c9088908890889088908890600401614c42565b600060405180830381600087803b158015611c2657600080fd5b505af1158015611c3a573d6000803e3d6000fd5b505050505050505050565b61ffff86166000908152600560205260408082209051611c689088908890614864565b90815260408051602092819003830190206001600160401b03871660009081529252902054905080611ce85760405162461bcd60e51b815260206004820152602360248201527f4e6f6e626c6f636b696e674c7a4170703a206e6f2073746f726564206d65737360448201526261676560e81b6064820152608401610b7d565b808383604051611cf9929190614864565b604051809103902014611d585760405162461bcd60e51b815260206004820152602160248201527f4e6f6e626c6f636b696e674c7a4170703a20696e76616c6964207061796c6f616044820152601960fa1b6064820152608401610b7d565b61ffff87166000908152600560205260408082209051611d7b9089908990614864565b90815260408051602092819003830181206001600160401b038916600090815290845282902093909355601f88018290048202830182019052868252611e13918991899089908190840183828082843760009201919091525050604080516020601f8a018190048102820181019092528881528a935091508890889081908401838280828437600092019190915250612a7d92505050565b7fc264d91f3adc5588250e1551f547752ca0cfa8f6b530d243b9f9f4cab10ea8e58787878785604051611e4a959493929190614c7b565b60405180910390a150505050505050565b611e636121ad565b61ffff83811660008181526002602090815260408083209487168084529482529182902085905581519283528201929092529081018290527f9d5c7c0b934da8fefa9c7760c98383778a12dfbfc0c3b3106518f43fb9508ac090606001611a78565b611ecd6121ad565b6006805460ff19168215159081179091556040519081527f1584ad594a70cbe1e6515592e1272a987d922b097ead875069cebe8b40c004a490602001611ba5565b611f166121ad565b61ffff83166000908152600160205260409020611f34828483614cb6565b507ffa41487ad5d6728f0b19276fa1eddc16558578f5109fc39d2dc33c3230470dab838383604051611a7893929190614969565b6001600160a01b038516331480611f845750611f848533610a01565b611fa05760405162461bcd60e51b8152600401610b7d906148f2565b610f15858585858561295a565b611fb56121ad565b6001600160a01b03811661201a5760405162461bcd60e51b815260206004820152602660248201527f4f776e61626c653a206e6577206f776e657220697320746865207a65726f206160448201526564647265737360d01b6064820152608401610b7d565b610dec81612d59565b6001600160a01b03831633148061203f575061203f8333610a01565b61205b5760405162461bcd60e51b8152600401610b7d906148f2565b6114e3838383612f96565b604051633d7b2f6f60e21b815261ffff808616600483015284166024820152306044820152606481018290526060907f00000000000000000000000000000000000000000000000000000000000000006001600160a01b03169063f5ecbdbc90608401600060405180830381865afa1580156120e6573d6000803e3d6000fd5b505050506040513d6000823e601f3d908101601f1916820160405261210e9190810190614dc4565b95945050505050565b60008061217a5a60966366ad5c8a60e01b8989898960405160240161213f9493929190614df8565b60408051601f198184030181529190526020810180516001600160e01b03166001600160e01b0319909316929092179091523092919061309d565b91509150816116c5576116c58686868685613127565b60006001600160e01b031982161580610dca5750610dca826131c4565b6000546001600160a01b031633146118835760405162461bcd60e51b815260206004820181905260248201527f4f776e61626c653a2063616c6c6572206973206e6f7420746865206f776e65726044820152606401610b7d565b6009610e018282614ac8565b6127106001600160601b038216111561223e5760405162461bcd60e51b8152600401610b7d90614e36565b6001600160a01b0382166122945760405162461bcd60e51b815260206004820152601960248201527f455243323938313a20696e76616c6964207265636569766572000000000000006044820152606401610b7d565b604080518082019091526001600160a01b039092168083526001600160601b039091166020909201829052600160a01b90910217600a55565b6060600980546122dc9061482a565b80601f01602080910402602001604051908101604052809291908181526020018280546123089061482a565b80156123555780601f1061232a57610100808354040283529160200191612355565b820191906000526020600020905b81548152906001019060200180831161233857829003601f168201915b50505050509050919050565b6060600061236e836131e9565b60010190506000816001600160401b0381111561238d5761238d613c07565b6040519080825280601f01601f1916602001820160405280156123b7576020820181803683370190505b5090508181016020015b600019016f181899199a1a9b1b9c1cb0b131b232b360811b600a86061a8153600a85049450846123c157509392505050565b6001600160a01b0384166124195760405162461bcd60e51b8152600401610b7d90614e80565b33600061242585612844565b9050600061243285612844565b905060008681526007602090815260408083206001600160a01b038b16845290915281208054879290612466908490614ec1565b909155505060408051878152602081018790526001600160a01b03808a1692600092918716917fc3d58168c5ae7397731d063d5bbf3d657854427343f4c083240f7aacaa2d0f62910160405180910390a4610d31836000898989896132c1565b81518351146124e75760405162461bcd60e51b8152600401610b7d90614ed4565b6001600160a01b03841661250d5760405162461bcd60e51b8152600401610b7d90614f1c565b3360005b84518110156125f757600085828151811061252e5761252e6149bd565b60200260200101519050600085838151811061254c5761254c6149bd565b60209081029190910181015160008481526007835260408082206001600160a01b038e16835290935291909120549091508181101561259d5760405162461bcd60e51b8152600401610b7d90614f61565b60008381526007602090815260408083206001600160a01b038e8116855292528083208585039055908b168252812080548492906125dc908490614ec1565b92505081905550505050806125f0906149d3565b9050612511565b50846001600160a01b0316866001600160a01b0316826001600160a01b03167f4a39dc06d4c0dbc64b70af90fd698a233a518aa5d07e595d983b8c0526c8f7fb8787604051612647929190614fab565b60405180910390a46116c581878787878761341c565b61266a88888888886134d7565b600086868660405160200161268193929190614b87565b604051602081830303815290604052905085516001036127865760065460ff16156126b9576126b4886001846000613563565b6126d8565b8151156126d85760405162461bcd60e51b8152600401610b7d90614fd0565b6126e6888286868634613638565b866040516126f49190615014565b6040518091039020896001600160a01b03168961ffff167f968b0d61ebcf43e5d76ed87bd2c4ee2f22b4969b9f4ca49e3373c025eddd5eeb8960008151811061273f5761273f6149bd565b60200260200101518960008151811061275a5761275a6149bd565b6020026020010151604051612779929190918252602082015260400190565b60405180910390a4611c3a565b600186511115611c3a5760065460ff16156127ae576127a9886002846000613563565b6127cd565b8151156127cd5760405162461bcd60e51b8152600401610b7d90614fd0565b6127db888286868634613638565b866040516127e99190615014565b6040518091039020896001600160a01b03168961ffff167fddd15f7cfbd674ac2096d598f1650367f8a8bd72b4e3abd85591099ea3b57e338989604051612831929190614fab565b60405180910390a4505050505050505050565b6040805160018082528183019092526060916000919060208083019080368337019050509050828160008151811061287e5761287e6149bd565b602090810291909101015292915050565b6127106001600160601b03821611156128ba5760405162461bcd60e51b8152600401610b7d90614e36565b6001600160a01b0382166129105760405162461bcd60e51b815260206004820152601b60248201527f455243323938313a20496e76616c696420706172616d657465727300000000006044820152606401610b7d565b6040805180820182526001600160a01b0393841681526001600160601b0392831660208083019182526000968752600b90529190942093519051909116600160a01b029116179055565b6001600160a01b0384166129805760405162461bcd60e51b8152600401610b7d90614f1c565b33600061298c85612844565b9050600061299985612844565b905060008681526007602090815260408083206001600160a01b038c168452909152902054858110156129de5760405162461bcd60e51b8152600401610b7d90614f61565b60008781526007602090815260408083206001600160a01b038d8116855292528083208985039055908a16825281208054889290612a1d908490614ec1565b909155505060408051888152602081018890526001600160a01b03808b16928c821692918816917fc3d58168c5ae7397731d063d5bbf3d657854427343f4c083240f7aacaa2d0f62910160405180910390a4611c3a848a8a8a8a8a6132c1565b600080600083806020019051810190612a969190615096565b60148301519295509093509150612aaf888285856137dd565b8251600103612b5857806001600160a01b031687604051612ad09190615014565b60405180910390208961ffff167f1bf64e58d19fc43de4c44b3d1bb1fae313979af831a7a39f3297564294329f0f86600081518110612b1157612b116149bd565b602002602001015186600081518110612b2c57612b2c6149bd565b6020026020010151604051612b4b929190918252602082015260400190565b60405180910390a46114f8565b6001835111156114f857806001600160a01b031687604051612b7a9190615014565b60405180910390208961ffff167f1ae08edbbcd7baa8d064835de8593ce16b313414525ac89534e349f4da7926e48686604051612bb8929190614fab565b60405180910390a45050505050505050565b6001600160a01b038316612bf05760405162461bcd60e51b8152600401610b7d90615113565b8051825114612c115760405162461bcd60e51b8152600401610b7d90614ed4565b604080516020810190915260009081905233905b8351811015612cea576000848281518110612c4257612c426149bd565b602002602001015190506000848381518110612c6057612c606149bd565b60209081029190910181015160008481526007835260408082206001600160a01b038c168352909352919091205490915081811015612cb15760405162461bcd60e51b8152600401610b7d90615156565b60009283526007602090815260408085206001600160a01b038b1686529091529092209103905580612ce2816149d3565b915050612c25565b5060006001600160a01b0316846001600160a01b0316826001600160a01b03167f4a39dc06d4c0dbc64b70af90fd698a233a518aa5d07e595d983b8c0526c8f7fb8686604051612d3b929190614fab565b60405180910390a46040805160208101909152600090525b50505050565b600080546001600160a01b038381166001600160a01b0319831681178455604051919092169283917f8be0079c531659141344cd1fd0a4f28419497f9722a3daafe3b4186f6b6457e09190a35050565b606081612db781601f614ec1565b1015612df65760405162461bcd60e51b815260206004820152600e60248201526d736c6963655f6f766572666c6f7760901b6044820152606401610b7d565b612e008284614ec1565b84511015612e445760405162461bcd60e51b8152602060048201526011602482015270736c6963655f6f75744f66426f756e647360781b6044820152606401610b7d565b606082158015612e635760405191506000825260208201604052612ead565b6040519150601f8416801560200281840101858101878315602002848b0101015b81831015612e9c578051835260209283019201612e84565b5050858452601f01601f1916604052505b50949350505050565b816001600160a01b0316836001600160a01b031603612f295760405162461bcd60e51b815260206004820152602960248201527f455243313135353a2073657474696e6720617070726f76616c20737461747573604482015268103337b91039b2b63360b91b6064820152608401610b7d565b6001600160a01b03838116600081815260086020908152604080832094871680845294825291829020805460ff191686151590811790915591519182527f17307eab39ab6107e8899845ad3d59bd9653f200f220920489ca2b5937696c31910160405180910390a3505050565b6001600160a01b038316612fbc5760405162461bcd60e51b8152600401610b7d90615113565b336000612fc884612844565b90506000612fd584612844565b6040805160208082018352600091829052888252600781528282206001600160a01b038b16835290522054909150848110156130235760405162461bcd60e51b8152600401610b7d90615156565b60008681526007602090815260408083206001600160a01b038b81168086529184528285208a8703905582518b81529384018a90529092908816917fc3d58168c5ae7397731d063d5bbf3d657854427343f4c083240f7aacaa2d0f62910160405180910390a4604080516020810190915260009052610d31565b6000606060008060008661ffff166001600160401b038111156130c2576130c2613c07565b6040519080825280601f01601f1916602001820160405280156130ec576020820181803683370190505b50905060008087516020890160008d8df191503d92508683111561310e578692505b828152826000602083013e909890975095505050505050565b8180519060200120600560008761ffff1661ffff168152602001908152602001600020856040516131589190615014565b9081526040805191829003602090810183206001600160401b0388166000908152915220919091557fe183f33de2837795525b4792ca4cd60535bd77c53b7e7030060bfcf5734d6b0c906131b5908790879087908790879061519a565b60405180910390a15050505050565b60006001600160e01b0319821663152a902d60e11b1480610dca5750610dca826137f8565b60008072184f03e93ff9f4daa797ed6e38ed64bf6a1f0160401b83106132285772184f03e93ff9f4daa797ed6e38ed64bf6a1f0160401b830492506040015b6d04ee2d6d415b85acef81000000008310613254576d04ee2d6d415b85acef8100000000830492506020015b662386f26fc10000831061327257662386f26fc10000830492506010015b6305f5e100831061328a576305f5e100830492506008015b612710831061329e57612710830492506004015b606483106132b0576064830492506002015b600a8310610dca5760010192915050565b6001600160a01b0384163b156116c55760405163f23a6e6160e01b81526001600160a01b0385169063f23a6e619061330590899089908890889088906004016151ec565b6020604051808303816000875af1925050508015613340575060408051601f3d908101601f1916820190925261333d91810190615226565b60015b6133ec5761334c615243565b806308c379a003613385575061336061525f565b8061336b5750613387565b8060405162461bcd60e51b8152600401610b7d9190613da2565b505b60405162461bcd60e51b815260206004820152603460248201527f455243313135353a207472616e7366657220746f206e6f6e2d455243313135356044820152732932b1b2b4bb32b91034b6b83632b6b2b73a32b960611b6064820152608401610b7d565b6001600160e01b0319811663f23a6e6160e01b14610d315760405162461bcd60e51b8152600401610b7d906152e8565b6001600160a01b0384163b156116c55760405163bc197c8160e01b81526001600160a01b0385169063bc197c81906134609089908990889088908890600401615330565b6020604051808303816000875af192505050801561349b575060408051601f3d908101601f1916820190925261349891810190615226565b60015b6134a75761334c615243565b6001600160e01b0319811663bc197c8160e01b14610d315760405162461bcd60e51b8152600401610b7d906152e8565b336001600160a01b0386168114806134f457506134f48682610a01565b6135585760405162461bcd60e51b815260206004820152602f60248201527f4f4e4654313135353a2073656e642063616c6c6572206973206e6f74206f776e60448201526e195c881b9bdc88185c1c1c9bdd9959608a1b6064820152608401610b7d565b6116c5868484612bca565b600061356e83613838565b61ffff808716600090815260026020908152604080832093891683529290522054909150806135df5760405162461bcd60e51b815260206004820152601a60248201527f4c7a4170703a206d696e4761734c696d6974206e6f74207365740000000000006044820152606401610b7d565b6135e98382614ec1565b8210156116c55760405162461bcd60e51b815260206004820152601b60248201527f4c7a4170703a20676173206c696d697420697320746f6f206c6f7700000000006044820152606401610b7d565b61ffff8616600090815260016020526040812080546136569061482a565b80601f01602080910402602001604051908101604052809291908181526020018280546136829061482a565b80156136cf5780601f106136a4576101008083540402835291602001916136cf565b820191906000526020600020905b8154815290600101906020018083116136b257829003601f168201915b5050505050905080516000036137405760405162461bcd60e51b815260206004820152603060248201527f4c7a4170703a2064657374696e6174696f6e20636861696e206973206e6f742060448201526f61207472757374656420736f7572636560801b6064820152608401610b7d565b61374b878751613894565b60405162c5803160e81b81526001600160a01b037f0000000000000000000000000000000000000000000000000000000000000000169063c58031009084906137a2908b9086908c908c908c908c9060040161536e565b6000604051808303818588803b1580156137bb57600080fd5b505af11580156137cf573d6000803e3d6000fd5b505050505050505050505050565b612d5383838360405180602001604052806000815250613905565b60006001600160e01b03198216636cdb3d1360e11b148061382957506001600160e01b031982166303a24d0760e21b145b80610dca5750610dca82613a51565b600060228251101561388c5760405162461bcd60e51b815260206004820152601c60248201527f4c7a4170703a20696e76616c69642061646170746572506172616d73000000006044820152606401610b7d565b506022015190565b61ffff8216600090815260036020526040812054908190036138b557506127105b808211156114e35760405162461bcd60e51b815260206004820181905260248201527f4c7a4170703a207061796c6f61642073697a6520697320746f6f206c617267656044820152606401610b7d565b6001600160a01b03841661392b5760405162461bcd60e51b8152600401610b7d90614e80565b815183511461394c5760405162461bcd60e51b8152600401610b7d90614ed4565b3360005b84518110156139e95783818151811061396b5761396b6149bd565b602002602001015160076000878481518110613989576139896149bd565b602002602001015181526020019081526020016000206000886001600160a01b03166001600160a01b0316815260200190815260200160002060008282546139d19190614ec1565b909155508190506139e1816149d3565b915050613950565b50846001600160a01b031660006001600160a01b0316826001600160a01b03167f4a39dc06d4c0dbc64b70af90fd698a233a518aa5d07e595d983b8c0526c8f7fb8787604051613a3a929190614fab565b60405180910390a4610f158160008787878761341c565b60006001600160e01b031982166319abbbbb60e11b1480610dca57506301ffc9a760e01b6001600160e01b0319831614610dca565b803561ffff81168114613a9857600080fd5b919050565b60008083601f840112613aaf57600080fd5b5081356001600160401b03811115613ac657600080fd5b60208301915083602082850101111561122757600080fd5b80356001600160401b0381168114613a9857600080fd5b60008060008060008060808789031215613b0e57600080fd5b613b1787613a86565b955060208701356001600160401b0380821115613b3357600080fd5b613b3f8a838b01613a9d565b9097509550859150613b5360408a01613ade565b94506060890135915080821115613b6957600080fd5b50613b7689828a01613a9d565b979a9699509497509295939492505050565b6001600160a01b0381168114610dec57600080fd5b8035613a9881613b88565b60008060408385031215613bbb57600080fd5b8235613bc681613b88565b946020939093013593505050565b6001600160e01b031981168114610dec57600080fd5b600060208284031215613bfc57600080fd5b81356119ea81613bd4565b634e487b7160e01b600052604160045260246000fd5b601f8201601f191681016001600160401b0381118282101715613c4257613c42613c07565b6040525050565b60006001600160401b03821115613c6257613c62613c07565b50601f01601f191660200190565b6000613c7b83613c49565b604051613c888282613c1d565b809250848152858585011115613c9d57600080fd5b8484602083013760006020868301015250509392505050565b600060208284031215613cc857600080fd5b81356001600160401b03811115613cde57600080fd5b8201601f81018413613cef57600080fd5b613cfe84823560208401613c70565b949350505050565b80356001600160601b0381168114613a9857600080fd5b60008060408385031215613d3057600080fd5b8235613d3b81613b88565b9150613d4960208401613d06565b90509250929050565b60005b83811015613d6d578181015183820152602001613d55565b50506000910152565b60008151808452613d8e816020860160208601613d52565b601f01601f19169290920160200192915050565b6020815260006119ea6020830184613d76565b600060208284031215613dc757600080fd5b6119ea82613a86565b60008060408385031215613de357600080fd5b613bc683613a86565b600060208284031215613dfe57600080fd5b5035919050565b600060208284031215613e1757600080fd5b81356119ea81613b88565b60008060408385031215613e3557600080fd5b50508035926020909101359150565b60006001600160401b03821115613e5d57613e5d613c07565b5060051b60200190565b600082601f830112613e7857600080fd5b81356020613e8582613e44565b604051613e928282613c1d565b83815260059390931b8501820192828101915086841115613eb257600080fd5b8286015b84811015613ecd5780358352918301918301613eb6565b509695505050505050565b600082601f830112613ee957600080fd5b6119ea83833560208501613c70565b600080600080600060a08688031215613f1057600080fd5b8535613f1b81613b88565b94506020860135613f2b81613b88565b935060408601356001600160401b0380821115613f4757600080fd5b613f5389838a01613e67565b94506060880135915080821115613f6957600080fd5b613f7589838a01613e67565b93506080880135915080821115613f8b57600080fd5b50613f9888828901613ed8565b9150509295509295909350565b600080600060408486031215613fba57600080fd5b613fc384613a86565b925060208401356001600160401b03811115613fde57600080fd5b613fea86828701613a9d565b9497909650939450505050565b600080600080600080600080610100898b03121561401457600080fd5b61401d89613b9d565b975061402b60208a01613a86565b965060408901356001600160401b038082111561404757600080fd5b6140538c838d01613ed8565b975060608b013591508082111561406957600080fd5b6140758c838d01613e67565b965060808b013591508082111561408b57600080fd5b6140978c838d01613e67565b95506140a560a08c01613b9d565b94506140b360c08c01613b9d565b935060e08b01359150808211156140c957600080fd5b506140d68b828c01613ed8565b9150509295985092959890939650565b600080600080600080600080610100898b03121561410357600080fd5b883561410e81613b88565b975061411c60208a01613a86565b965060408901356001600160401b038082111561413857600080fd5b6141448c838d01613ed8565b975060608b0135965060808b0135955060a08b0135915061416482613b88565b90935060c08a01359061417682613b88565b90925060e08a013590808211156140c957600080fd5b600082601f83011261419d57600080fd5b813560206141aa82613e44565b6040516141b78282613c1d565b83815260059390931b85018201928281019150868411156141d757600080fd5b8286015b84811015613ecd5780356141ee81613b88565b83529183019183016141db565b6000806040838503121561420e57600080fd5b82356001600160401b038082111561422557600080fd5b6142318683870161418c565b9350602085013591508082111561424757600080fd5b5061425485828601613e67565b9150509250929050565b600081518084526020808501945080840160005b8381101561428e57815187529582019590820190600101614272565b509495945050505050565b6020815260006119ea602083018461425e565b600080600080600060a086880312156142c457600080fd5b85356142cf81613b88565b945060208601356001600160401b03808211156142eb57600080fd5b6142f789838a0161418c565b95506040880135915080821115613f4757600080fd5b60008060006060848603121561432257600080fd5b83359250602084013561433481613b88565b915061434260408501613d06565b90509250925092565b60008060006060848603121561436057600080fd5b61436984613a86565b925060208401356001600160401b0381111561438457600080fd5b61439086828701613ed8565b92505061434260408501613ade565b600080600080600060a086880312156143b757600080fd5b85356143c281613b88565b945060208601356001600160401b03808211156143de57600080fd5b6143ea89838a0161418c565b955060408801359450606088013593506080880135915080821115613f8b57600080fd5b60008060006060848603121561442357600080fd5b833561442e81613b88565b925060208401356001600160401b038082111561444a57600080fd5b61445687838801613e67565b9350604086013591508082111561446c57600080fd5b5061447986828701613e67565b9150509250925092565b8015158114610dec57600080fd5b8035613a9881614483565b60008060008060008060c087890312156144b557600080fd5b6144be87613a86565b955060208701356001600160401b03808211156144da57600080fd5b6144e68a838b01613ed8565b965060408901359550606089013594506080890135915061450682614483565b90925060a0880135908082111561451c57600080fd5b5061452989828a01613ed8565b9150509295509295509295565b6000806040838503121561454957600080fd5b61455283613a86565b9150613d4960208401613a86565b6000806040838503121561457357600080fd5b823561457e81613b88565b9150602083013561458e81614483565b809150509250929050565b60008060008060008060c087890312156145b257600080fd5b6145bb87613a86565b955060208701356001600160401b03808211156145d757600080fd5b6145e38a838b01613ed8565b965060408901359150808211156145f957600080fd5b6146058a838b01613e67565b9550606089013591508082111561461b57600080fd5b6146278a838b01613e67565b945061463560808a01614491565b935060a089013591508082111561451c57600080fd5b60008060008060006080868803121561466357600080fd5b61466c86613a86565b945061467a60208701613a86565b93506040860135925060608601356001600160401b0381111561469c57600080fd5b6146a888828901613a9d565b969995985093965092949392505050565b6000806000606084860312156146ce57600080fd5b6146d784613a86565b92506146e560208501613a86565b9150604084013590509250925092565b6000806040838503121561470857600080fd5b823561471381613b88565b9150602083013561458e81613b88565b60006020828403121561473557600080fd5b81356119ea81614483565b600080600080600060a0868803121561475857600080fd5b853561476381613b88565b9450602086013561477381613b88565b9350604086013592506060860135915060808601356001600160401b0381111561479c57600080fd5b613f9888828901613ed8565b6000806000606084860312156147bd57600080fd5b83356147c881613b88565b95602085013595506040909401359392505050565b600080600080608085870312156147f357600080fd5b6147fc85613a86565b935061480a60208601613a86565b9250604085013561481a81613b88565b9396929550929360600135925050565b600181811c9082168061483e57607f821691505b60208210810361485e57634e487b7160e01b600052602260045260246000fd5b50919050565b8183823760009101908152919050565b60008351614886818460208801613d52565b83519083019061489a818360208801613d52565b01949350505050565b634e487b7160e01b600052601160045260246000fd5b8082028115828204841417610dca57610dca6148a3565b6000826148ed57634e487b7160e01b600052601260045260246000fd5b500490565b6020808252602e908201527f455243313135353a2063616c6c6572206973206e6f7420746f6b656e206f776e60408201526d195c881bdc88185c1c1c9bdd995960921b606082015260800190565b81835281816020850137506000828201602090810191909152601f909101601f19169091010190565b61ffff8416815260406020820152600061210e604083018486614940565b60006020828403121561499957600080fd5b5051919050565b6000602082840312156149b257600080fd5b81516119ea81614483565b634e487b7160e01b600052603260045260246000fd5b6000600182016149e5576149e56148a3565b5060010190565b60208082526037908201527f457874656e6465644f4e4654313135353a2063616c6c6572206973206e6f742060408201527f746f6b656e206f776e6572206f7220617070726f766564000000000000000000606082015260800190565b81810381811115610dca57610dca6148a3565b8284823760609190911b6bffffffffffffffffffffffff19169101908152601401919050565b601f8211156114e357600081815260208120601f850160051c81016020861015614aa95750805b601f850160051c820191505b818110156116c557828155600101614ab5565b81516001600160401b03811115614ae157614ae1613c07565b614af581614aef845461482a565b84614a82565b602080601f831160018114614b2a5760008415614b125750858301515b600019600386901b1c1916600185901b1785556116c5565b600085815260208120601f198616915b82811015614b5957888601518255948401946001909101908401614b3a565b5085821015614b775787850151600019600388901b60f8161c191681555b5050505050600190811b01905550565b606081526000614b9a6060830186613d76565b8281036020840152614bac818661425e565b90508281036040840152614bc0818561425e565b9695505050505050565b61ffff861681526001600160a01b038516602082015260a060408201819052600090614bf890830186613d76565b84151560608401528281036080840152614c128185613d76565b98975050505050505050565b60008060408385031215614c3157600080fd5b505080516020909101519092909150565b600061ffff808816835280871660208401525084604083015260806060830152614c70608083018486614940565b979650505050505050565b61ffff86168152608060208201526000614c99608083018688614940565b6001600160401b0394909416604083015250606001529392505050565b6001600160401b03831115614ccd57614ccd613c07565b614ce183614cdb835461482a565b83614a82565b6000601f841160018114614d155760008515614cfd5750838201355b600019600387901b1c1916600186901b178355610f15565b600083815260209020601f19861690835b82811015614d465786850135825560209485019460019092019101614d26565b5086821015614d635760001960f88860031b161c19848701351681555b505060018560011b0183555050505050565b600082601f830112614d8657600080fd5b8151614d9181613c49565b604051614d9e8282613c1d565b828152856020848701011115614db357600080fd5b61210e836020830160208801613d52565b600060208284031215614dd657600080fd5b81516001600160401b03811115614dec57600080fd5b613cfe84828501614d75565b61ffff85168152608060208201526000614e156080830186613d76565b6001600160401b03851660408401528281036060840152614c708185613d76565b6020808252602a908201527f455243323938313a20726f79616c7479206665652077696c6c206578636565646040820152692073616c65507269636560b01b606082015260800190565b60208082526021908201527f455243313135353a206d696e7420746f20746865207a65726f206164647265736040820152607360f81b606082015260800190565b80820180821115610dca57610dca6148a3565b60208082526028908201527f455243313135353a2069647320616e6420616d6f756e7473206c656e677468206040820152670dad2e6dac2e8c6d60c31b606082015260800190565b60208082526025908201527f455243313135353a207472616e7366657220746f20746865207a65726f206164604082015264647265737360d81b606082015260800190565b6020808252602a908201527f455243313135353a20696e73756666696369656e742062616c616e636520666f60408201526939103a3930b739b332b960b11b606082015260800190565b604081526000614fbe604083018561425e565b828103602084015261210e818561425e565b60208082526024908201527f4c7a4170703a205f61646170746572506172616d73206d75737420626520656d604082015263383a3c9760e11b606082015260800190565b60008251615026818460208701613d52565b9190910192915050565b600082601f83011261504157600080fd5b8151602061504e82613e44565b60405161505b8282613c1d565b83815260059390931b850182019282810191508684111561507b57600080fd5b8286015b84811015613ecd578051835291830191830161507f565b6000806000606084860312156150ab57600080fd5b83516001600160401b03808211156150c257600080fd5b6150ce87838801614d75565b945060208601519150808211156150e457600080fd5b6150f087838801615030565b9350604086015191508082111561510657600080fd5b5061447986828701615030565b60208082526023908201527f455243313135353a206275726e2066726f6d20746865207a65726f206164647260408201526265737360e81b606082015260800190565b60208082526024908201527f455243313135353a206275726e20616d6f756e7420657863656564732062616c604082015263616e636560e01b606082015260800190565b61ffff8616815260a0602082015260006151b760a0830187613d76565b6001600160401b038616604084015282810360608401526151d88186613d76565b90508281036080840152614c128185613d76565b6001600160a01b03868116825285166020820152604081018490526060810183905260a060808201819052600090614c7090830184613d76565b60006020828403121561523857600080fd5b81516119ea81613bd4565b600060033d111561525c5760046000803e5060005160e01c5b90565b600060443d101561526d5790565b6040516003193d81016004833e81513d6001600160401b03816024840111818411171561529c57505050505090565b82850191508151818111156152b45750505050505090565b843d87010160208285010111156152ce5750505050505090565b6152dd60208286010187613c1d565b509095945050505050565b60208082526028908201527f455243313135353a204552433131353552656365697665722072656a656374656040820152676420746f6b656e7360c01b606082015260800190565b6001600160a01b0386811682528516602082015260a06040820181905260009061535c9083018661425e565b82810360608401526151d8818661425e565b61ffff8716815260c06020820152600061538b60c0830188613d76565b828103604084015261539d8188613d76565b6001600160a01b0387811660608601528616608085015283810360a085015290506153c88185613d76565b999850505050505050505056fea2646970667358221220e52ef89f2e0061aad7a8d3a5c707db25717a7e2d7ccf05c49d511c5054a3045764736f6c63430008120033",
  "devdoc": {
    "events": {
      "ApprovalForAll(address,address,bool)": {
        "details": "Emitted when `account` grants or revokes permission to `operator` to transfer their tokens, according to `approved`."
      },
      "TransferBatch(address,address,address,uint256[],uint256[])": {
        "details": "Equivalent to multiple {TransferSingle} events, where `operator`, `from` and `to` are the same for all transfers."
      },
      "TransferSingle(address,address,address,uint256,uint256)": {
        "details": "Emitted when `value` tokens of token type `id` are transferred from `from` to `to` by `operator`."
      },
      "URI(string,uint256)": {
        "details": "Emitted when the URI for token type `id` changes to `value`, if it is a non-programmatic URI. If an {URI} event was emitted for `id`, the standard https://eips.ethereum.org/EIPS/eip-1155#metadata-extensions[guarantees] that `value` will equal the value returned by {IERC1155MetadataURI-uri}."
      }
    },
    "kind": "dev",
    "methods": {
      "balanceOf(address,uint256)": {
        "details": "See {IERC1155-balanceOf}. Requirements: - `account` cannot be the zero address."
      },
      "balanceOfBatch(address[],uint256[])": {
        "details": "See {IERC1155-balanceOfBatch}. Requirements: - `accounts` and `ids` must have the same length."
      },
      "isApprovedForAll(address,address)": {
        "details": "See {IERC1155-isApprovedForAll}."
      },
      "multiBatchTransferFrom(address,address[],uint256[],uint256[],bytes)": {
        "details": "Batch transfer to multiple recipients."
      },
      "multiTransferFrom(address,address[],uint256,uint256,bytes)": {
        "details": "Transfer to multiple recipients."
      },
      "owner()": {
        "details": "Returns the address of the current owner."
      },
      "renounceOwnership()": {
        "details": "Leaves the contract without owner. It will not be possible to call `onlyOwner` functions. Can only be called by the current owner. NOTE: Renouncing ownership will leave the contract without an owner, thereby disabling any functionality that is only available to the owner."
      },
      "royaltyInfo(uint256,uint256)": {
        "details": "Returns how much royalty is owed and to whom, based on a sale price that may be denominated in any unit of exchange. The royalty amount is denominated and should be paid in that same unit of exchange."
      },
      "safeBatchTransferFrom(address,address,uint256[],uint256[],bytes)": {
        "details": "See {IERC1155-safeBatchTransferFrom}."
      },
      "safeTransferFrom(address,address,uint256,uint256,bytes)": {
        "details": "See {IERC1155-safeTransferFrom}."
      },
      "setApprovalForAll(address,bool)": {
        "details": "See {IERC1155-setApprovalForAll}."
      },
      "setDefaultRoyalty(address,uint96)": {
        "details": "Sets the royalty information that all ids in this contract will default to."
      },
      "setTokenRoyalty(uint256,address,uint96)": {
        "details": "Sets the royalty information for a specific token id, overriding the global default."
      },
      "setURI(string)": {
        "details": "Sets a new token metadata URI."
      },
      "supportsInterface(bytes4)": {
        "details": "See {IERC165-supportsInterface}."
      },
      "transferOwnership(address)": {
        "details": "Transfers ownership of the contract to a new account (`newOwner`). Can only be called by the current owner."
      },
      "uri(uint256)": {
        "details": "See {IERC1155MetadataURI-uri}. Includes check for token existence."
      }
    },
    "stateVariables": {
      "__gap": {
        "details": "This empty reserved space is put in place to allow future versions to add new variables without shifting down storage in the inheritance chain. See https://docs.openzeppelin.com/contracts/4.x/upgradeable#storage_gaps"
      }
    },
    "version": 1
  },
  "userdoc": {
    "kind": "user",
    "methods": {},
    "version": 1
  },
  "storageLayout": {
    "storage": [
      {
        "astId": 7,
        "contract": "contracts/ArmourX1155.sol:AX1155",
        "label": "_owner",
        "offset": 0,
        "slot": "0",
        "type": "t_address"
      },
      {
        "astId": 4815,
        "contract": "contracts/ArmourX1155.sol:AX1155",
        "label": "trustedRemoteLookup",
        "offset": 0,
        "slot": "1",
        "type": "t_mapping(t_uint16,t_bytes_storage)"
      },
      {
        "astId": 4821,
        "contract": "contracts/ArmourX1155.sol:AX1155",
        "label": "minDstGasLookup",
        "offset": 0,
        "slot": "2",
        "type": "t_mapping(t_uint16,t_mapping(t_uint16,t_uint256))"
      },
      {
        "astId": 4825,
        "contract": "contracts/ArmourX1155.sol:AX1155",
        "label": "payloadSizeLimitLookup",
        "offset": 0,
        "slot": "3",
        "type": "t_mapping(t_uint16,t_uint256)"
      },
      {
        "astId": 4827,
        "contract": "contracts/ArmourX1155.sol:AX1155",
        "label": "precrime",
        "offset": 0,
        "slot": "4",
        "type": "t_address"
      },
      {
        "astId": 5357,
        "contract": "contracts/ArmourX1155.sol:AX1155",
        "label": "failedMessages",
        "offset": 0,
        "slot": "5",
        "type": "t_mapping(t_uint16,t_mapping(t_bytes_memory_ptr,t_mapping(t_uint64,t_bytes32)))"
      },
      {
        "astId": 3986,
        "contract": "contracts/ArmourX1155.sol:AX1155",
        "label": "useCustomAdapterParams",
        "offset": 0,
        "slot": "6",
        "type": "t_bool"
      },
      {
        "astId": 160,
        "contract": "contracts/ArmourX1155.sol:AX1155",
        "label": "_balances",
        "offset": 0,
        "slot": "7",
        "type": "t_mapping(t_uint256,t_mapping(t_address,t_uint256))"
      },
      {
        "astId": 166,
        "contract": "contracts/ArmourX1155.sol:AX1155",
        "label": "_operatorApprovals",
        "offset": 0,
        "slot": "8",
        "type": "t_mapping(t_address,t_mapping(t_address,t_bool))"
      },
      {
        "astId": 168,
        "contract": "contracts/ArmourX1155.sol:AX1155",
        "label": "_uri",
        "offset": 0,
        "slot": "9",
        "type": "t_string_storage"
      },
      {
        "astId": 1699,
        "contract": "contracts/ArmourX1155.sol:AX1155",
        "label": "_defaultRoyaltyInfo",
        "offset": 0,
        "slot": "10",
        "type": "t_struct(RoyaltyInfo)1696_storage"
      },
      {
        "astId": 1704,
        "contract": "contracts/ArmourX1155.sol:AX1155",
        "label": "_tokenRoyaltyInfo",
        "offset": 0,
        "slot": "11",
        "type": "t_mapping(t_uint256,t_struct(RoyaltyInfo)1696_storage)"
      },
      {
        "astId": 3498,
        "contract": "contracts/ArmourX1155.sol:AX1155",
        "label": "mintCount",
        "offset": 0,
        "slot": "12",
        "type": "t_uint256"
      },
      {
        "astId": 3505,
        "contract": "contracts/ArmourX1155.sol:AX1155",
        "label": "_tokenURIs",
        "offset": 0,
        "slot": "13",
        "type": "t_mapping(t_uint256,t_string_storage)"
      },
      {
        "astId": 3508,
        "contract": "contracts/ArmourX1155.sol:AX1155",
        "label": "name",
        "offset": 0,
        "slot": "14",
        "type": "t_string_storage"
      },
      {
        "astId": 3511,
        "contract": "contracts/ArmourX1155.sol:AX1155",
        "label": "symbol",
        "offset": 0,
        "slot": "15",
        "type": "t_string_storage"
      },
      {
        "astId": 3851,
        "contract": "contracts/ArmourX1155.sol:AX1155",
        "label": "__gap",
        "offset": 0,
        "slot": "16",
        "type": "t_array(t_uint256)48_storage"
      }
    ],
    "types": {
      "t_address": {
        "encoding": "inplace",
        "label": "address",
        "numberOfBytes": "20"
      },
      "t_array(t_uint256)48_storage": {
        "base": "t_uint256",
        "encoding": "inplace",
        "label": "uint256[48]",
        "numberOfBytes": "1536"
      },
      "t_bool": {
        "encoding": "inplace",
        "label": "bool",
        "numberOfBytes": "1"
      },
      "t_bytes32": {
        "encoding": "inplace",
        "label": "bytes32",
        "numberOfBytes": "32"
      },
      "t_bytes_memory_ptr": {
        "encoding": "bytes",
        "label": "bytes",
        "numberOfBytes": "32"
      },
      "t_bytes_storage": {
        "encoding": "bytes",
        "label": "bytes",
        "numberOfBytes": "32"
      },
      "t_mapping(t_address,t_bool)": {
        "encoding": "mapping",
        "key": "t_address",
        "label": "mapping(address => bool)",
        "numberOfBytes": "32",
        "value": "t_bool"
      },
      "t_mapping(t_address,t_mapping(t_address,t_bool))": {
        "encoding": "mapping",
        "key": "t_address",
        "label": "mapping(address => mapping(address => bool))",
        "numberOfBytes": "32",
        "value": "t_mapping(t_address,t_bool)"
      },
      "t_mapping(t_address,t_uint256)": {
        "encoding": "mapping",
        "key": "t_address",
        "label": "mapping(address => uint256)",
        "numberOfBytes": "32",
        "value": "t_uint256"
      },
      "t_mapping(t_bytes_memory_ptr,t_mapping(t_uint64,t_bytes32))": {
        "encoding": "mapping",
        "key": "t_bytes_memory_ptr",
        "label": "mapping(bytes => mapping(uint64 => bytes32))",
        "numberOfBytes": "32",
        "value": "t_mapping(t_uint64,t_bytes32)"
      },
      "t_mapping(t_uint16,t_bytes_storage)": {
        "encoding": "mapping",
        "key": "t_uint16",
        "label": "mapping(uint16 => bytes)",
        "numberOfBytes": "32",
        "value": "t_bytes_storage"
      },
      "t_mapping(t_uint16,t_mapping(t_bytes_memory_ptr,t_mapping(t_uint64,t_bytes32)))": {
        "encoding": "mapping",
        "key": "t_uint16",
        "label": "mapping(uint16 => mapping(bytes => mapping(uint64 => bytes32)))",
        "numberOfBytes": "32",
        "value": "t_mapping(t_bytes_memory_ptr,t_mapping(t_uint64,t_bytes32))"
      },
      "t_mapping(t_uint16,t_mapping(t_uint16,t_uint256))": {
        "encoding": "mapping",
        "key": "t_uint16",
        "label": "mapping(uint16 => mapping(uint16 => uint256))",
        "numberOfBytes": "32",
        "value": "t_mapping(t_uint16,t_uint256)"
      },
      "t_mapping(t_uint16,t_uint256)": {
        "encoding": "mapping",
        "key": "t_uint16",
        "label": "mapping(uint16 => uint256)",
        "numberOfBytes": "32",
        "value": "t_uint256"
      },
      "t_mapping(t_uint256,t_mapping(t_address,t_uint256))": {
        "encoding": "mapping",
        "key": "t_uint256",
        "label": "mapping(uint256 => mapping(address => uint256))",
        "numberOfBytes": "32",
        "value": "t_mapping(t_address,t_uint256)"
      },
      "t_mapping(t_uint256,t_string_storage)": {
        "encoding": "mapping",
        "key": "t_uint256",
        "label": "mapping(uint256 => string)",
        "numberOfBytes": "32",
        "value": "t_string_storage"
      },
      "t_mapping(t_uint256,t_struct(RoyaltyInfo)1696_storage)": {
        "encoding": "mapping",
        "key": "t_uint256",
        "label": "mapping(uint256 => struct ERC2981.RoyaltyInfo)",
        "numberOfBytes": "32",
        "value": "t_struct(RoyaltyInfo)1696_storage"
      },
      "t_mapping(t_uint64,t_bytes32)": {
        "encoding": "mapping",
        "key": "t_uint64",
        "label": "mapping(uint64 => bytes32)",
        "numberOfBytes": "32",
        "value": "t_bytes32"
      },
      "t_string_storage": {
        "encoding": "bytes",
        "label": "string",
        "numberOfBytes": "32"
      },
      "t_struct(RoyaltyInfo)1696_storage": {
        "encoding": "inplace",
        "label": "struct ERC2981.RoyaltyInfo",
        "members": [
          {
            "astId": 1693,
            "contract": "contracts/ArmourX1155.sol:AX1155",
            "label": "receiver",
            "offset": 0,
            "slot": "0",
            "type": "t_address"
          },
          {
            "astId": 1695,
            "contract": "contracts/ArmourX1155.sol:AX1155",
            "label": "royaltyFraction",
            "offset": 20,
            "slot": "0",
            "type": "t_uint96"
          }
        ],
        "numberOfBytes": "32"
      },
      "t_uint16": {
        "encoding": "inplace",
        "label": "uint16",
        "numberOfBytes": "2"
      },
      "t_uint256": {
        "encoding": "inplace",
        "label": "uint256",
        "numberOfBytes": "32"
      },
      "t_uint64": {
        "encoding": "inplace",
        "label": "uint64",
        "numberOfBytes": "8"
      },
      "t_uint96": {
        "encoding": "inplace",
        "label": "uint96",
        "numberOfBytes": "12"
      }
    }
  }
}